{"contracts/AgentRegistry.sol":{"AgentRegistry":{"abi":[{"inputs":[],"name":"AgentInactive","type":"error"},{"inputs":[],"name":"AgentNotFound","type":"error"},{"inputs":[],"name":"EmptyEndpoint","type":"error"},{"inputs":[],"name":"EmptyName","type":"error"},{"inputs":[],"name":"Unauthorized","type":"error"},{"anonymous":false,"inputs":[{"indexed":true,"internalType":"uint256","name":"id","type":"uint256"}],"name":"AgentDeactivated","type":"event"},{"anonymous":false,"inputs":[{"indexed":true,"internalType":"uint256","name":"id","type":"uint256"},{"indexed":false,"internalType":"string","name":"name","type":"string"},{"indexed":true,"internalType":"address","name":"owner","type":"address"}],"name":"AgentRegistered","type":"event"},{"anonymous":false,"inputs":[{"indexed":true,"internalType":"uint256","name":"id","type":"uint256"},{"indexed":false,"internalType":"string","name":"name","type":"string"}],"name":"AgentUpdated","type":"event"},{"inputs":[{"internalType":"uint256","name":"agentId","type":"uint256"}],"name":"deactivateAgent","outputs":[],"stateMutability":"nonpayable","type":"function"},{"inputs":[],"name":"getActiveAgents","outputs":[{"components":[{"internalType":"uint256","name":"id","type":"uint256"},{"internalType":"string","name":"name","type":"string"},{"internalType":"string","name":"description","type":"string"},{"internalType":"string","name":"endpoint","type":"string"},{"internalType":"string[]","name":"capabilities","type":"string[]"},{"internalType":"address","name":"owner","type":"address"},{"internalType":"bool","name":"isActive","type":"bool"},{"internalType":"uint256","name":"createdAt","type":"uint256"}],"internalType":"struct AgentRegistry.Agent[]","name":"","type":"tuple[]"}],"stateMutability":"view","type":"function"},{"inputs":[{"internalType":"uint256","name":"agentId","type":"uint256"}],"name":"getAgentById","outputs":[{"components":[{"internalType":"uint256","name":"id","type":"uint256"},{"internalType":"string","name":"name","type":"string"},{"internalType":"string","name":"description","type":"string"},{"internalType":"string","name":"endpoint","type":"string"},{"internalType":"string[]","name":"capabilities","type":"string[]"},{"internalType":"address","name":"owner","type":"address"},{"internalType":"bool","name":"isActive","type":"bool"},{"internalType":"uint256","name":"createdAt","type":"uint256"}],"internalType":"struct AgentRegistry.Agent","name":"","type":"tuple"}],"stateMutability":"view","type":"function"},{"inputs":[{"internalType":"address","name":"owner","type":"address"}],"name":"getAgentsByOwner","outputs":[{"components":[{"internalType":"uint256","name":"id","type":"uint256"},{"internalType":"string","name":"name","type":"string"},{"internalType":"string","name":"description","type":"string"},{"internalType":"string","name":"endpoint","type":"string"},{"internalType":"string[]","name":"capabilities","type":"string[]"},{"internalType":"address","name":"owner","type":"address"},{"internalType":"bool","name":"isActive","type":"bool"},{"internalType":"uint256","name":"createdAt","type":"uint256"}],"internalType":"struct AgentRegistry.Agent[]","name":"","type":"tuple[]"}],"stateMutability":"view","type":"function"},{"inputs":[],"name":"getAllAgents","outputs":[{"components":[{"internalType":"uint256","name":"id","type":"uint256"},{"internalType":"string","name":"name","type":"string"},{"internalType":"string","name":"description","type":"string"},{"internalType":"string","name":"endpoint","type":"string"},{"internalType":"string[]","name":"capabilities","type":"string[]"},{"internalType":"address","name":"owner","type":"address"},{"internalType":"bool","name":"isActive","type":"bool"},{"internalType":"uint256","name":"createdAt","type":"uint256"}],"internalType":"struct AgentRegistry.Agent[]","name":"","type":"tuple[]"}],"stateMutability":"view","type":"function"},{"inputs":[],"name":"getTotalAgents","outputs":[{"internalType":"uint256","name":"","type":"uint256"}],"stateMutability":"view","type":"function"},{"inputs":[{"internalType":"string","name":"name","type":"string"},{"internalType":"string","name":"description","type":"string"},{"internalType":"string","name":"endpoint","type":"string"},{"internalType":"string[]","name":"capabilities","type":"string[]"}],"name":"registerAgent","outputs":[{"internalType":"uint256","name":"","type":"uint256"}],"stateMutability":"nonpayable","type":"function"},{"inputs":[{"internalType":"uint256","name":"agentId","type":"uint256"},{"internalType":"string","name":"name","type":"string"},{"internalType":"string","name":"description","type":"string"},{"internalType":"string","name":"endpoint","type":"string"},{"internalType":"string[]","name":"capabilities","type":"string[]"}],"name":"updateAgent","outputs":[],"stateMutability":"nonpayable","type":"function"}],"evm":{"bytecode":{"linkReferences":{},"object":"608080604052346015576118b8908161001b8239f35b600080fdfe6080604052600436101561001257600080fd5b60003560e01c806311ba6b4a146113965780631ab6f888146111a95780633731a16f1461118b578063860e4ac61461104957806386b909fd14610e72578063894176961461083a578063bfe950cd146101b15763f44c253a1461007457600080fd5b346101ac5760203660031901126101ac576004356100906116c1565b508060005260016020526006604060002001541561019b57600052600160205260406000206040516100c18161166d565b815481526100d16001830161179f565b60208201526100e26002830161179f565b60408201526100f36003830161179f565b6060820152600482018054610107816116aa565b916101156040519384611689565b818352602083019060005260206000206000915b83831061017e576080860185905260058701546001600160a01b03811660a0808901919091521c60ff16151560c0870152600687015460e08701526040516020808252819061017a90820189611482565b0390f35b60016020819261018d8561179f565b815201920192019190610129565b63e93ba22360e01b60005260046000fd5b600080fd5b346101ac5760803660031901126101ac576004356001600160401b0381116101ac576101e19036906004016115ba565b906024356001600160401b0381116101ac576102019036906004016115ba565b6044929192356001600160401b0381116101ac576102239036906004016115ba565b6064356001600160401b0381116101ac576102429036906004016115e7565b9290918715610829578015610818576000549661025e88611648565b600055876000526001602052604060002095888755600187016001600160401b038b116104625761028f8154611765565b8b601f82116107e5575b505060008b601f811160011461077d57806102ca92600091610772575b508160011b916000199060031b1c19161790565b90555b60028701916001600160401b038211610462576102ea8354611765565b601f8111610740575b50600090601f83116001146106dc576103259291600091836106d1575b50508160011b916000199060031b1c19161790565b90555b60038501916001600160401b038211610462576103458354611765565b601f811161069f575b50600090601f831160011461063b5761037f9291600091836106305750508160011b916000199060031b1c19161790565b90555b6004830191600160401b81116104625782548184558082106105b2575b50908092600052602060002092600091601e1981360301915b84841061047857505050506005830180546001600160a81b0319163360ff60a01b191617600160a01b179055505042600690910155600254600160401b811015610462577faef1fcdf962a03943b677ae3b92ef1b34c972aeef794ed6e9ba5f599b461883b610457602095610434846001889601600255611617565b81549060031b9086821b91600019901b191617905560405191829133968361185a565b0390a3604051908152f35b634e487b7160e01b600052604160045260246000fd5b8035838112156101ac5782018035906001600160401b0382116101ac5781360360208201136101ac576000906104ae8954611765565b601f8111610577575b5081601f84116001146105095783600195929460209487966104ed94926104fc5750508160011b916000199060031b1c19161790565b89555b019601930192946103b8565b8692500101353880610310565b91601f1984168a845260208420935b81811061055d5750936020936001969387969383889510610541575b505050811b0189556104f0565b01850135600019600384901b60f8161c191690558f8080610534565b919360206001819282888801013581550195019201610518565b6105a2908a845260208420601f860160051c810191602087106105a8575b601f0160051c0190611843565b8d6104b7565b9091508190610595565b8360005281602060002091820191015b8181106105cf575061039f565b806105dc60019254611765565b806105e9575b50016105c2565b601f811183146105ff5750600081555b8a6105e2565b61061d908260005283601f6020600020920160051c82019101611843565b80600052600060208120818355556105f9565b013590508a80610310565b8382526020822091601f198416815b818110610687575090846001959493921061066d575b505050811b019055610382565b0135600019600384901b60f8161c19169055898080610660565b9193602060018192878701358155019501920161064a565b6106cb90846000526020600020601f850160051c810191602086106105a857601f0160051c0190611843565b8961034e565b013590508c80610310565b8382526020822091601f198416815b818110610728575090846001959493921061070e575b505050811b019055610328565b0135600019600384901b60f8161c191690558b8080610701565b919360206001819287870135815501950192016106eb565b61076c90846000526020600020601f850160051c810191602086106105a857601f0160051c0190611843565b8b6102f3565b90508b01358e6102b6565b5081815260208120908c601f198116825b8d8282106107c7575050106107ad575b505060018b811b0190556102cd565b8a013560001960038e901b60f8161c191690558b8061079e565b60209293508495839295600192013581550194019201908e9161078e565b61081191836000526020600020906020601f840160051c830193106105a857601f0160051c0190611843565b8b8b610299565b63221418ad60e21b60005260046000fd5b632ef1310560e01b60005260046000fd5b346101ac5760a03660031901126101ac576004356024356001600160401b0381116101ac5761086d9036906004016115ba565b6044929192356001600160401b0381116101ac5761088f9036906004016115ba565b93906064356001600160401b0381116101ac576108b09036906004016115ba565b95906084356001600160401b0381116101ac576108d19036906004016115e7565b60008881526001602052604090206005015490989194906001600160a01b03163303610e62578760005260016020526006604060002001541561019b5786156108295781156108185787600052600160205260ff60056040600020015460a01c1615610e5157876000526001602052604060002093600185016001600160401b038911610462576109628154611765565b601f8111610e1f575b50600089601f8111600114610dbb578061099a92600091610db057508160011b916000199060031b1c19161790565b90555b60028501916001600160401b038211610462576109ba8354611765565b601f8111610d7e575b50600090601f8311600114610d1a576109f49291600091836106d15750508160011b916000199060031b1c19161790565b90555b60038301916001600160401b03821161046257610a148354611765565b601f8111610ce8575b50600090601f8311600114610c80579180610a53926004969594600092610c755750508160011b916000199060031b1c19161790565b90555b0194600160401b8111610462578554818755808210610bf7575b50908095600052602060002095600091601e1981360301915b848410610ac857877ff0677ec077e6eec8e31d4e8be0cb20b797f3a9dc243e2ddc641532c0ff4120368888610ac36040519283928361185a565b0390a2005b8035838112156101ac5782018035906001600160401b0382116101ac5781360360208201136101ac57600090610afe8c54611765565b601f8111610bc7575b5081601f8411600114610b59578360019592946020948796610b3d9492610b4c5750508160011b916000199060031b1c19161790565b8c555b01990193019297610a89565b8692500101358f80610310565b91601f1984168d845260208420935b818110610bad5750936020936001969387969383889510610b91575b505050811b018c55610b40565b01850135600019600384901b60f8161c191690558e8080610b84565b919360206001819282888801013581550195019201610b68565b610bf1908d845260208420601f860160051c810191602087106105a857601f0160051c0190611843565b8c610b07565b8660005281602060002091820191015b818110610c145750610a70565b80610c2160019254611765565b80610c2e575b5001610c07565b601f81118314610c445750600081555b89610c27565b610c62908260005283601f6020600020920160051c82019101611843565b8060005260006020812081835555610c3e565b013590508b80610310565b8382526020822091601f198416815b818110610cd0575091600193918560049897969410610cb6575b505050811b019055610a56565b0135600019600384901b60f8161c191690558a8080610ca9565b91936020600181928787013581550195019201610c8f565b610d1490846000526020600020601f850160051c810191602086106105a857601f0160051c0190611843565b89610a1d565b8382526020822091601f198416815b818110610d665750908460019594939210610d4c575b505050811b0190556109f7565b0135600019600384901b60f8161c191690558b8080610d3f565b91936020600181928787013581550195019201610d29565b610daa90846000526020600020601f850160051c810191602086106105a857601f0160051c0190611843565b8b6109c3565b90508a01358e6102b6565b5081815260208120908a601f198116825b8c828210610e0557505010610deb575b5050600189811b01905561099d565b89013560001960038c901b60f8161c191690558b80610ddc565b84013585556001909401936020938401938e935001610dcc565b610e4b90826000526020600020601f8c0160051c81019160208d106105a857601f0160051c0190611843565b8b61096b565b63ba32abe160e01b60005260046000fd5b6282b42960e81b60005260046000fd5b346101ac5760003660031901126101ac576002546000805b8281106110015750610e9b90611701565b60009160005b818110610eb6576040518061017a858261155a565b610ebf81611617565b90549060031b1c600052600160205260ff60056040600020015460a01c16610eea575b600101610ea1565b92610ef484611617565b90549060031b1c6000526001602052604060002060405190610f158261166d565b80548252610f256001820161179f565b6020830152610f366002820161179f565b6040830152610f476003820161179f565b6060830152600481018054610f5b816116aa565b91610f696040519384611689565b81835260208301906000526020600020906000905b838210610fe45750505050608083015260058101546001600160a01b03811660a0808501919091521c60ff16151560c08301526006015460e0820152600191610fdc91610fcb8287611751565b52610fd68186611751565b50611648565b939050610ee2565b600160208192610ff38661179f565b815201930191019091610f7e565b61100a81611617565b90549060031b1c600052600160205260ff60056040600020015460a01c16611035575b600101610e8a565b90611041600191611648565b91905061102d565b346101ac5760003660031901126101ac5760025461106681611701565b9060005b81811061107f576040518061017a858261155a565b61108881611617565b90549060031b1c60005260016020526040600020604051906110a98261166d565b805482526110b96001820161179f565b60208301526110ca6002820161179f565b60408301526110db6003820161179f565b60608301526004810180546110ef816116aa565b916110fd6040519384611689565b81835260208301906000526020600020906000905b83821061116e5750505050608083015260058101546001600160a01b03811660a0808501919091521c60ff16151560c08301526006015460e08201526001919061115c8286611751565b526111678185611751565b500161106a565b60016020819261117d8661179f565b815201930191019091611112565b346101ac5760003660031901126101ac576020600254604051908152f35b346101ac5760203660031901126101ac576004356001600160a01b038116908190036101ac576002546000805b82811061134a57506111e790611701565b906000805b828110611201576040518061017a868261155a565b61120a81611617565b90549060031b1c60005260016020528460018060a01b036005604060002001541614611239575b6001016111ec565b9061124382611617565b90549060031b1c60005260016020526040600020604051906112648261166d565b805482526112746001820161179f565b60208301526112856002820161179f565b60408301526112966003820161179f565b60608301526004810180546112aa816116aa565b916112b86040519384611689565b81835260208301906000526020600020906000905b83821061132d5750505050608083015260058101546001600160a01b03811660a0808501919091521c60ff16151560c08301526006015460e08201526001916113259161131a8288611751565b52610fd68187611751565b919050611231565b60016020819261133c8661179f565b8152019301910190916112cd565b61135381611617565b90549060031b1c60005260016020528360018060a01b036005604060002001541614611382575b6001016111d6565b9061138e600191611648565b91905061137a565b346101ac5760203660031901126101ac576004356000818152600160205260409020600501546001600160a01b03163303610e62578060005260016020526006604060002001541561019b5780600052600160205260ff60056040600020015460a01c1615610e51576000818152600160205260408120600501805460ff60a01b191690557fc2fb7f8575ac3990e70361684edfc4d283931ea9a03dfa28766bf376a3934aa29080a2005b919082519283825260005b84811061146d575050826000602080949584010152601f8019910116010190565b8060208092840101518282860101520161144c565b90815181526114cc6114ba6114a860208501516101006020860152610100850190611441565b60408501518482036040860152611441565b60608401518382036060850152611441565b916080810151928281036080840152835180825260208201916020808360051b8301019601926000915b83831061152d5750505060a0808401516001600160a01b031690850152505060c08082015115159083015260e09081015191015290565b909192939660208061154b600193601f198682030187528b51611441565b990193019301919392906114f6565b602081016020825282518091526040820191602060408360051b8301019401926000915b83831061158d57505050505090565b90919293946020806115ab600193603f198682030187528951611482565b9701930193019193929061157e565b9181601f840112156101ac578235916001600160401b0383116101ac57602083818601950101116101ac57565b9181601f840112156101ac578235916001600160401b0383116101ac576020808501948460051b0101116101ac57565b60025481101561163257600260005260206000200190600090565b634e487b7160e01b600052603260045260246000fd5b60001981146116575760010190565b634e487b7160e01b600052601160045260246000fd5b61010081019081106001600160401b0382111761046257604052565b90601f801991011681019081106001600160401b0382111761046257604052565b6001600160401b0381116104625760051b60200190565b604051906116ce8261166d565b600060e0838281526060602082015260606040820152606080820152606060808201528260a08201528260c08201520152565b9061170b826116aa565b6117186040519182611689565b8281528092611729601f19916116aa565b019060005b82811061173a57505050565b6020906117456116c1565b8282850101520161172e565b80518210156116325760209160051b010190565b90600182811c92168015611795575b602083101461177f57565b634e487b7160e01b600052602260045260246000fd5b91607f1691611774565b90604051918260008254926117b384611765565b808452936001811690811561182157506001146117da575b506117d892500383611689565b565b90506000929192526020600020906000915b8183106118055750509060206117d892820101386117cb565b60209193508060019154838589010152019101909184926117ec565b9050602092506117d894915060ff191682840152151560051b820101386117cb565b81811061184e575050565b60008155600101611843565b90918060409360208452816020850152848401376000828201840152601f01601f191601019056fea26469706673582212209f8fd38bf52f8eee047b4776110c024567e3d392be2ca896b7cd9e0ba772af6064736f6c634300081c0033","opcodes":"PUSH1 0x80 DUP1 PUSH1 0x40 MSTORE CALLVALUE PUSH1 0x15 JUMPI PUSH2 0x18B8 SWAP1 DUP2 PUSH2 0x1B DUP3 CODECOPY RETURN JUMPDEST PUSH1 0x0 DUP1 REVERT INVALID PUSH1 0x80 PUSH1 0x40 MSTORE PUSH1 0x4 CALLDATASIZE LT ISZERO PUSH2 0x12 JUMPI PUSH1 0x0 DUP1 REVERT JUMPDEST PUSH1 0x0 CALLDATALOAD PUSH1 0xE0 SHR DUP1 PUSH4 0x11BA6B4A EQ PUSH2 0x1396 JUMPI DUP1 PUSH4 0x1AB6F888 EQ PUSH2 0x11A9 JUMPI DUP1 PUSH4 0x3731A16F EQ PUSH2 0x118B JUMPI DUP1 PUSH4 0x860E4AC6 EQ PUSH2 0x1049 JUMPI DUP1 PUSH4 0x86B909FD EQ PUSH2 0xE72 JUMPI DUP1 PUSH4 0x89417696 EQ PUSH2 0x83A JUMPI DUP1 PUSH4 0xBFE950CD EQ PUSH2 0x1B1 JUMPI PUSH4 0xF44C253A EQ PUSH2 0x74 JUMPI PUSH1 0x0 DUP1 REVERT JUMPDEST CALLVALUE PUSH2 0x1AC JUMPI PUSH1 0x20 CALLDATASIZE PUSH1 0x3 NOT ADD SLT PUSH2 0x1AC JUMPI PUSH1 0x4 CALLDATALOAD PUSH2 0x90 PUSH2 0x16C1 JUMP JUMPDEST POP DUP1 PUSH1 0x0 MSTORE PUSH1 0x1 PUSH1 0x20 MSTORE PUSH1 0x6 PUSH1 0x40 PUSH1 0x0 KECCAK256 ADD SLOAD ISZERO PUSH2 0x19B JUMPI PUSH1 0x0 MSTORE PUSH1 0x1 PUSH1 0x20 MSTORE PUSH1 0x40 PUSH1 0x0 KECCAK256 PUSH1 0x40 MLOAD PUSH2 0xC1 DUP2 PUSH2 0x166D JUMP JUMPDEST DUP2 SLOAD DUP2 MSTORE PUSH2 0xD1 PUSH1 0x1 DUP4 ADD PUSH2 0x179F JUMP JUMPDEST PUSH1 0x20 DUP3 ADD MSTORE PUSH2 0xE2 PUSH1 0x2 DUP4 ADD PUSH2 0x179F JUMP JUMPDEST PUSH1 0x40 DUP3 ADD MSTORE PUSH2 0xF3 PUSH1 0x3 DUP4 ADD PUSH2 0x179F JUMP JUMPDEST PUSH1 0x60 DUP3 ADD MSTORE PUSH1 0x4 DUP3 ADD DUP1 SLOAD PUSH2 0x107 DUP2 PUSH2 0x16AA JUMP JUMPDEST SWAP2 PUSH2 0x115 PUSH1 0x40 MLOAD SWAP4 DUP5 PUSH2 0x1689 JUMP JUMPDEST DUP2 DUP4 MSTORE PUSH1 0x20 DUP4 ADD SWAP1 PUSH1 0x0 MSTORE PUSH1 0x20 PUSH1 0x0 KECCAK256 PUSH1 0x0 SWAP2 JUMPDEST DUP4 DUP4 LT PUSH2 0x17E JUMPI PUSH1 0x80 DUP7 ADD DUP6 SWAP1 MSTORE PUSH1 0x5 DUP8 ADD SLOAD PUSH1 0x1 PUSH1 0x1 PUSH1 0xA0 SHL SUB DUP2 AND PUSH1 0xA0 DUP1 DUP10 ADD SWAP2 SWAP1 SWAP2 MSTORE SHR PUSH1 0xFF AND ISZERO ISZERO PUSH1 0xC0 DUP8 ADD MSTORE PUSH1 0x6 DUP8 ADD SLOAD PUSH1 0xE0 DUP8 ADD MSTORE PUSH1 0x40 MLOAD PUSH1 0x20 DUP1 DUP3 MSTORE DUP2 SWAP1 PUSH2 0x17A SWAP1 DUP3 ADD DUP10 PUSH2 0x1482 JUMP JUMPDEST SUB SWAP1 RETURN JUMPDEST PUSH1 0x1 PUSH1 0x20 DUP2 SWAP3 PUSH2 0x18D DUP6 PUSH2 0x179F JUMP JUMPDEST DUP2 MSTORE ADD SWAP3 ADD SWAP3 ADD SWAP2 SWAP1 PUSH2 0x129 JUMP JUMPDEST PUSH4 0xE93BA223 PUSH1 0xE0 SHL PUSH1 0x0 MSTORE PUSH1 0x4 PUSH1 0x0 REVERT JUMPDEST PUSH1 0x0 DUP1 REVERT JUMPDEST CALLVALUE PUSH2 0x1AC JUMPI PUSH1 0x80 CALLDATASIZE PUSH1 0x3 NOT ADD SLT PUSH2 0x1AC JUMPI PUSH1 0x4 CALLDATALOAD PUSH1 0x1 PUSH1 0x1 PUSH1 0x40 SHL SUB DUP2 GT PUSH2 0x1AC JUMPI PUSH2 0x1E1 SWAP1 CALLDATASIZE SWAP1 PUSH1 0x4 ADD PUSH2 0x15BA JUMP JUMPDEST SWAP1 PUSH1 0x24 CALLDATALOAD PUSH1 0x1 PUSH1 0x1 PUSH1 0x40 SHL SUB DUP2 GT PUSH2 0x1AC JUMPI PUSH2 0x201 SWAP1 CALLDATASIZE SWAP1 PUSH1 0x4 ADD PUSH2 0x15BA JUMP JUMPDEST PUSH1 0x44 SWAP3 SWAP2 SWAP3 CALLDATALOAD PUSH1 0x1 PUSH1 0x1 PUSH1 0x40 SHL SUB DUP2 GT PUSH2 0x1AC JUMPI PUSH2 0x223 SWAP1 CALLDATASIZE SWAP1 PUSH1 0x4 ADD PUSH2 0x15BA JUMP JUMPDEST PUSH1 0x64 CALLDATALOAD PUSH1 0x1 PUSH1 0x1 PUSH1 0x40 SHL SUB DUP2 GT PUSH2 0x1AC JUMPI PUSH2 0x242 SWAP1 CALLDATASIZE SWAP1 PUSH1 0x4 ADD PUSH2 0x15E7 JUMP JUMPDEST SWAP3 SWAP1 SWAP2 DUP8 ISZERO PUSH2 0x829 JUMPI DUP1 ISZERO PUSH2 0x818 JUMPI PUSH1 0x0 SLOAD SWAP7 PUSH2 0x25E DUP9 PUSH2 0x1648 JUMP JUMPDEST PUSH1 0x0 SSTORE DUP8 PUSH1 0x0 MSTORE PUSH1 0x1 PUSH1 0x20 MSTORE PUSH1 0x40 PUSH1 0x0 KECCAK256 SWAP6 DUP9 DUP8 SSTORE PUSH1 0x1 DUP8 ADD PUSH1 0x1 PUSH1 0x1 PUSH1 0x40 SHL SUB DUP12 GT PUSH2 0x462 JUMPI PUSH2 0x28F DUP2 SLOAD PUSH2 0x1765 JUMP JUMPDEST DUP12 PUSH1 0x1F DUP3 GT PUSH2 0x7E5 JUMPI JUMPDEST POP POP PUSH1 0x0 DUP12 PUSH1 0x1F DUP2 GT PUSH1 0x1 EQ PUSH2 0x77D JUMPI DUP1 PUSH2 0x2CA SWAP3 PUSH1 0x0 SWAP2 PUSH2 0x772 JUMPI JUMPDEST POP DUP2 PUSH1 0x1 SHL SWAP2 PUSH1 0x0 NOT SWAP1 PUSH1 0x3 SHL SHR NOT AND OR SWAP1 JUMP JUMPDEST SWAP1 SSTORE JUMPDEST PUSH1 0x2 DUP8 ADD SWAP2 PUSH1 0x1 PUSH1 0x1 PUSH1 0x40 SHL SUB DUP3 GT PUSH2 0x462 JUMPI PUSH2 0x2EA DUP4 SLOAD PUSH2 0x1765 JUMP JUMPDEST PUSH1 0x1F DUP2 GT PUSH2 0x740 JUMPI JUMPDEST POP PUSH1 0x0 SWAP1 PUSH1 0x1F DUP4 GT PUSH1 0x1 EQ PUSH2 0x6DC JUMPI PUSH2 0x325 SWAP3 SWAP2 PUSH1 0x0 SWAP2 DUP4 PUSH2 0x6D1 JUMPI JUMPDEST POP POP DUP2 PUSH1 0x1 SHL SWAP2 PUSH1 0x0 NOT SWAP1 PUSH1 0x3 SHL SHR NOT AND OR SWAP1 JUMP JUMPDEST SWAP1 SSTORE JUMPDEST PUSH1 0x3 DUP6 ADD SWAP2 PUSH1 0x1 PUSH1 0x1 PUSH1 0x40 SHL SUB DUP3 GT PUSH2 0x462 JUMPI PUSH2 0x345 DUP4 SLOAD PUSH2 0x1765 JUMP JUMPDEST PUSH1 0x1F DUP2 GT PUSH2 0x69F JUMPI JUMPDEST POP PUSH1 0x0 SWAP1 PUSH1 0x1F DUP4 GT PUSH1 0x1 EQ PUSH2 0x63B JUMPI PUSH2 0x37F SWAP3 SWAP2 PUSH1 0x0 SWAP2 DUP4 PUSH2 0x630 JUMPI POP POP DUP2 PUSH1 0x1 SHL SWAP2 PUSH1 0x0 NOT SWAP1 PUSH1 0x3 SHL SHR NOT AND OR SWAP1 JUMP JUMPDEST SWAP1 SSTORE JUMPDEST PUSH1 0x4 DUP4 ADD SWAP2 PUSH1 0x1 PUSH1 0x40 SHL DUP2 GT PUSH2 0x462 JUMPI DUP3 SLOAD DUP2 DUP5 SSTORE DUP1 DUP3 LT PUSH2 0x5B2 JUMPI JUMPDEST POP SWAP1 DUP1 SWAP3 PUSH1 0x0 MSTORE PUSH1 0x20 PUSH1 0x0 KECCAK256 SWAP3 PUSH1 0x0 SWAP2 PUSH1 0x1E NOT DUP2 CALLDATASIZE SUB ADD SWAP2 JUMPDEST DUP5 DUP5 LT PUSH2 0x478 JUMPI POP POP POP POP PUSH1 0x5 DUP4 ADD DUP1 SLOAD PUSH1 0x1 PUSH1 0x1 PUSH1 0xA8 SHL SUB NOT AND CALLER PUSH1 0xFF PUSH1 0xA0 SHL NOT AND OR PUSH1 0x1 PUSH1 0xA0 SHL OR SWAP1 SSTORE POP POP TIMESTAMP PUSH1 0x6 SWAP1 SWAP2 ADD SSTORE PUSH1 0x2 SLOAD PUSH1 0x1 PUSH1 0x40 SHL DUP2 LT ISZERO PUSH2 0x462 JUMPI PUSH32 0xAEF1FCDF962A03943B677AE3B92EF1B34C972AEEF794ED6E9BA5F599B461883B PUSH2 0x457 PUSH1 0x20 SWAP6 PUSH2 0x434 DUP5 PUSH1 0x1 DUP9 SWAP7 ADD PUSH1 0x2 SSTORE PUSH2 0x1617 JUMP JUMPDEST DUP2 SLOAD SWAP1 PUSH1 0x3 SHL SWAP1 DUP7 DUP3 SHL SWAP2 PUSH1 0x0 NOT SWAP1 SHL NOT AND OR SWAP1 SSTORE PUSH1 0x40 MLOAD SWAP2 DUP3 SWAP2 CALLER SWAP7 DUP4 PUSH2 0x185A JUMP JUMPDEST SUB SWAP1 LOG3 PUSH1 0x40 MLOAD SWAP1 DUP2 MSTORE RETURN JUMPDEST PUSH4 0x4E487B71 PUSH1 0xE0 SHL PUSH1 0x0 MSTORE PUSH1 0x41 PUSH1 0x4 MSTORE PUSH1 0x24 PUSH1 0x0 REVERT JUMPDEST DUP1 CALLDATALOAD DUP4 DUP2 SLT ISZERO PUSH2 0x1AC JUMPI DUP3 ADD DUP1 CALLDATALOAD SWAP1 PUSH1 0x1 PUSH1 0x1 PUSH1 0x40 SHL SUB DUP3 GT PUSH2 0x1AC JUMPI DUP2 CALLDATASIZE SUB PUSH1 0x20 DUP3 ADD SGT PUSH2 0x1AC JUMPI PUSH1 0x0 SWAP1 PUSH2 0x4AE DUP10 SLOAD PUSH2 0x1765 JUMP JUMPDEST PUSH1 0x1F DUP2 GT PUSH2 0x577 JUMPI JUMPDEST POP DUP2 PUSH1 0x1F DUP5 GT PUSH1 0x1 EQ PUSH2 0x509 JUMPI DUP4 PUSH1 0x1 SWAP6 SWAP3 SWAP5 PUSH1 0x20 SWAP5 DUP8 SWAP7 PUSH2 0x4ED SWAP5 SWAP3 PUSH2 0x4FC JUMPI POP POP DUP2 PUSH1 0x1 SHL SWAP2 PUSH1 0x0 NOT SWAP1 PUSH1 0x3 SHL SHR NOT AND OR SWAP1 JUMP JUMPDEST DUP10 SSTORE JUMPDEST ADD SWAP7 ADD SWAP4 ADD SWAP3 SWAP5 PUSH2 0x3B8 JUMP JUMPDEST DUP7 SWAP3 POP ADD ADD CALLDATALOAD CODESIZE DUP1 PUSH2 0x310 JUMP JUMPDEST SWAP2 PUSH1 0x1F NOT DUP5 AND DUP11 DUP5 MSTORE PUSH1 0x20 DUP5 KECCAK256 SWAP4 JUMPDEST DUP2 DUP2 LT PUSH2 0x55D JUMPI POP SWAP4 PUSH1 0x20 SWAP4 PUSH1 0x1 SWAP7 SWAP4 DUP8 SWAP7 SWAP4 DUP4 DUP9 SWAP6 LT PUSH2 0x541 JUMPI JUMPDEST POP POP POP DUP2 SHL ADD DUP10 SSTORE PUSH2 0x4F0 JUMP JUMPDEST ADD DUP6 ADD CALLDATALOAD PUSH1 0x0 NOT PUSH1 0x3 DUP5 SWAP1 SHL PUSH1 0xF8 AND SHR NOT AND SWAP1 SSTORE DUP16 DUP1 DUP1 PUSH2 0x534 JUMP JUMPDEST SWAP2 SWAP4 PUSH1 0x20 PUSH1 0x1 DUP2 SWAP3 DUP3 DUP9 DUP9 ADD ADD CALLDATALOAD DUP2 SSTORE ADD SWAP6 ADD SWAP3 ADD PUSH2 0x518 JUMP JUMPDEST PUSH2 0x5A2 SWAP1 DUP11 DUP5 MSTORE PUSH1 0x20 DUP5 KECCAK256 PUSH1 0x1F DUP7 ADD PUSH1 0x5 SHR DUP2 ADD SWAP2 PUSH1 0x20 DUP8 LT PUSH2 0x5A8 JUMPI JUMPDEST PUSH1 0x1F ADD PUSH1 0x5 SHR ADD SWAP1 PUSH2 0x1843 JUMP JUMPDEST DUP14 PUSH2 0x4B7 JUMP JUMPDEST SWAP1 SWAP2 POP DUP2 SWAP1 PUSH2 0x595 JUMP JUMPDEST DUP4 PUSH1 0x0 MSTORE DUP2 PUSH1 0x20 PUSH1 0x0 KECCAK256 SWAP2 DUP3 ADD SWAP2 ADD JUMPDEST DUP2 DUP2 LT PUSH2 0x5CF JUMPI POP PUSH2 0x39F JUMP JUMPDEST DUP1 PUSH2 0x5DC PUSH1 0x1 SWAP3 SLOAD PUSH2 0x1765 JUMP JUMPDEST DUP1 PUSH2 0x5E9 JUMPI JUMPDEST POP ADD PUSH2 0x5C2 JUMP JUMPDEST PUSH1 0x1F DUP2 GT DUP4 EQ PUSH2 0x5FF JUMPI POP PUSH1 0x0 DUP2 SSTORE JUMPDEST DUP11 PUSH2 0x5E2 JUMP JUMPDEST PUSH2 0x61D SWAP1 DUP3 PUSH1 0x0 MSTORE DUP4 PUSH1 0x1F PUSH1 0x20 PUSH1 0x0 KECCAK256 SWAP3 ADD PUSH1 0x5 SHR DUP3 ADD SWAP2 ADD PUSH2 0x1843 JUMP JUMPDEST DUP1 PUSH1 0x0 MSTORE PUSH1 0x0 PUSH1 0x20 DUP2 KECCAK256 DUP2 DUP4 SSTORE SSTORE PUSH2 0x5F9 JUMP JUMPDEST ADD CALLDATALOAD SWAP1 POP DUP11 DUP1 PUSH2 0x310 JUMP JUMPDEST DUP4 DUP3 MSTORE PUSH1 0x20 DUP3 KECCAK256 SWAP2 PUSH1 0x1F NOT DUP5 AND DUP2 JUMPDEST DUP2 DUP2 LT PUSH2 0x687 JUMPI POP SWAP1 DUP5 PUSH1 0x1 SWAP6 SWAP5 SWAP4 SWAP3 LT PUSH2 0x66D JUMPI JUMPDEST POP POP POP DUP2 SHL ADD SWAP1 SSTORE PUSH2 0x382 JUMP JUMPDEST ADD CALLDATALOAD PUSH1 0x0 NOT PUSH1 0x3 DUP5 SWAP1 SHL PUSH1 0xF8 AND SHR NOT AND SWAP1 SSTORE DUP10 DUP1 DUP1 PUSH2 0x660 JUMP JUMPDEST SWAP2 SWAP4 PUSH1 0x20 PUSH1 0x1 DUP2 SWAP3 DUP8 DUP8 ADD CALLDATALOAD DUP2 SSTORE ADD SWAP6 ADD SWAP3 ADD PUSH2 0x64A JUMP JUMPDEST PUSH2 0x6CB SWAP1 DUP5 PUSH1 0x0 MSTORE PUSH1 0x20 PUSH1 0x0 KECCAK256 PUSH1 0x1F DUP6 ADD PUSH1 0x5 SHR DUP2 ADD SWAP2 PUSH1 0x20 DUP7 LT PUSH2 0x5A8 JUMPI PUSH1 0x1F ADD PUSH1 0x5 SHR ADD SWAP1 PUSH2 0x1843 JUMP JUMPDEST DUP10 PUSH2 0x34E JUMP JUMPDEST ADD CALLDATALOAD SWAP1 POP DUP13 DUP1 PUSH2 0x310 JUMP JUMPDEST DUP4 DUP3 MSTORE PUSH1 0x20 DUP3 KECCAK256 SWAP2 PUSH1 0x1F NOT DUP5 AND DUP2 JUMPDEST DUP2 DUP2 LT PUSH2 0x728 JUMPI POP SWAP1 DUP5 PUSH1 0x1 SWAP6 SWAP5 SWAP4 SWAP3 LT PUSH2 0x70E JUMPI JUMPDEST POP POP POP DUP2 SHL ADD SWAP1 SSTORE PUSH2 0x328 JUMP JUMPDEST ADD CALLDATALOAD PUSH1 0x0 NOT PUSH1 0x3 DUP5 SWAP1 SHL PUSH1 0xF8 AND SHR NOT AND SWAP1 SSTORE DUP12 DUP1 DUP1 PUSH2 0x701 JUMP JUMPDEST SWAP2 SWAP4 PUSH1 0x20 PUSH1 0x1 DUP2 SWAP3 DUP8 DUP8 ADD CALLDATALOAD DUP2 SSTORE ADD SWAP6 ADD SWAP3 ADD PUSH2 0x6EB JUMP JUMPDEST PUSH2 0x76C SWAP1 DUP5 PUSH1 0x0 MSTORE PUSH1 0x20 PUSH1 0x0 KECCAK256 PUSH1 0x1F DUP6 ADD PUSH1 0x5 SHR DUP2 ADD SWAP2 PUSH1 0x20 DUP7 LT PUSH2 0x5A8 JUMPI PUSH1 0x1F ADD PUSH1 0x5 SHR ADD SWAP1 PUSH2 0x1843 JUMP JUMPDEST DUP12 PUSH2 0x2F3 JUMP JUMPDEST SWAP1 POP DUP12 ADD CALLDATALOAD DUP15 PUSH2 0x2B6 JUMP JUMPDEST POP DUP2 DUP2 MSTORE PUSH1 0x20 DUP2 KECCAK256 SWAP1 DUP13 PUSH1 0x1F NOT DUP2 AND DUP3 JUMPDEST DUP14 DUP3 DUP3 LT PUSH2 0x7C7 JUMPI POP POP LT PUSH2 0x7AD JUMPI JUMPDEST POP POP PUSH1 0x1 DUP12 DUP2 SHL ADD SWAP1 SSTORE PUSH2 0x2CD JUMP JUMPDEST DUP11 ADD CALLDATALOAD PUSH1 0x0 NOT PUSH1 0x3 DUP15 SWAP1 SHL PUSH1 0xF8 AND SHR NOT AND SWAP1 SSTORE DUP12 DUP1 PUSH2 0x79E JUMP JUMPDEST PUSH1 0x20 SWAP3 SWAP4 POP DUP5 SWAP6 DUP4 SWAP3 SWAP6 PUSH1 0x1 SWAP3 ADD CALLDATALOAD DUP2 SSTORE ADD SWAP5 ADD SWAP3 ADD SWAP1 DUP15 SWAP2 PUSH2 0x78E JUMP JUMPDEST PUSH2 0x811 SWAP2 DUP4 PUSH1 0x0 MSTORE PUSH1 0x20 PUSH1 0x0 KECCAK256 SWAP1 PUSH1 0x20 PUSH1 0x1F DUP5 ADD PUSH1 0x5 SHR DUP4 ADD SWAP4 LT PUSH2 0x5A8 JUMPI PUSH1 0x1F ADD PUSH1 0x5 SHR ADD SWAP1 PUSH2 0x1843 JUMP JUMPDEST DUP12 DUP12 PUSH2 0x299 JUMP JUMPDEST PUSH4 0x221418AD PUSH1 0xE2 SHL PUSH1 0x0 MSTORE PUSH1 0x4 PUSH1 0x0 REVERT JUMPDEST PUSH4 0x2EF13105 PUSH1 0xE0 SHL PUSH1 0x0 MSTORE PUSH1 0x4 PUSH1 0x0 REVERT JUMPDEST CALLVALUE PUSH2 0x1AC JUMPI PUSH1 0xA0 CALLDATASIZE PUSH1 0x3 NOT ADD SLT PUSH2 0x1AC JUMPI PUSH1 0x4 CALLDATALOAD PUSH1 0x24 CALLDATALOAD PUSH1 0x1 PUSH1 0x1 PUSH1 0x40 SHL SUB DUP2 GT PUSH2 0x1AC JUMPI PUSH2 0x86D SWAP1 CALLDATASIZE SWAP1 PUSH1 0x4 ADD PUSH2 0x15BA JUMP JUMPDEST PUSH1 0x44 SWAP3 SWAP2 SWAP3 CALLDATALOAD PUSH1 0x1 PUSH1 0x1 PUSH1 0x40 SHL SUB DUP2 GT PUSH2 0x1AC JUMPI PUSH2 0x88F SWAP1 CALLDATASIZE SWAP1 PUSH1 0x4 ADD PUSH2 0x15BA JUMP JUMPDEST SWAP4 SWAP1 PUSH1 0x64 CALLDATALOAD PUSH1 0x1 PUSH1 0x1 PUSH1 0x40 SHL SUB DUP2 GT PUSH2 0x1AC JUMPI PUSH2 0x8B0 SWAP1 CALLDATASIZE SWAP1 PUSH1 0x4 ADD PUSH2 0x15BA JUMP JUMPDEST SWAP6 SWAP1 PUSH1 0x84 CALLDATALOAD PUSH1 0x1 PUSH1 0x1 PUSH1 0x40 SHL SUB DUP2 GT PUSH2 0x1AC JUMPI PUSH2 0x8D1 SWAP1 CALLDATASIZE SWAP1 PUSH1 0x4 ADD PUSH2 0x15E7 JUMP JUMPDEST PUSH1 0x0 DUP9 DUP2 MSTORE PUSH1 0x1 PUSH1 0x20 MSTORE PUSH1 0x40 SWAP1 KECCAK256 PUSH1 0x5 ADD SLOAD SWAP1 SWAP9 SWAP2 SWAP5 SWAP1 PUSH1 0x1 PUSH1 0x1 PUSH1 0xA0 SHL SUB AND CALLER SUB PUSH2 0xE62 JUMPI DUP8 PUSH1 0x0 MSTORE PUSH1 0x1 PUSH1 0x20 MSTORE PUSH1 0x6 PUSH1 0x40 PUSH1 0x0 KECCAK256 ADD SLOAD ISZERO PUSH2 0x19B JUMPI DUP7 ISZERO PUSH2 0x829 JUMPI DUP2 ISZERO PUSH2 0x818 JUMPI DUP8 PUSH1 0x0 MSTORE PUSH1 0x1 PUSH1 0x20 MSTORE PUSH1 0xFF PUSH1 0x5 PUSH1 0x40 PUSH1 0x0 KECCAK256 ADD SLOAD PUSH1 0xA0 SHR AND ISZERO PUSH2 0xE51 JUMPI DUP8 PUSH1 0x0 MSTORE PUSH1 0x1 PUSH1 0x20 MSTORE PUSH1 0x40 PUSH1 0x0 KECCAK256 SWAP4 PUSH1 0x1 DUP6 ADD PUSH1 0x1 PUSH1 0x1 PUSH1 0x40 SHL SUB DUP10 GT PUSH2 0x462 JUMPI PUSH2 0x962 DUP2 SLOAD PUSH2 0x1765 JUMP JUMPDEST PUSH1 0x1F DUP2 GT PUSH2 0xE1F JUMPI JUMPDEST POP PUSH1 0x0 DUP10 PUSH1 0x1F DUP2 GT PUSH1 0x1 EQ PUSH2 0xDBB JUMPI DUP1 PUSH2 0x99A SWAP3 PUSH1 0x0 SWAP2 PUSH2 0xDB0 JUMPI POP DUP2 PUSH1 0x1 SHL SWAP2 PUSH1 0x0 NOT SWAP1 PUSH1 0x3 SHL SHR NOT AND OR SWAP1 JUMP JUMPDEST SWAP1 SSTORE JUMPDEST PUSH1 0x2 DUP6 ADD SWAP2 PUSH1 0x1 PUSH1 0x1 PUSH1 0x40 SHL SUB DUP3 GT PUSH2 0x462 JUMPI PUSH2 0x9BA DUP4 SLOAD PUSH2 0x1765 JUMP JUMPDEST PUSH1 0x1F DUP2 GT PUSH2 0xD7E JUMPI JUMPDEST POP PUSH1 0x0 SWAP1 PUSH1 0x1F DUP4 GT PUSH1 0x1 EQ PUSH2 0xD1A JUMPI PUSH2 0x9F4 SWAP3 SWAP2 PUSH1 0x0 SWAP2 DUP4 PUSH2 0x6D1 JUMPI POP POP DUP2 PUSH1 0x1 SHL SWAP2 PUSH1 0x0 NOT SWAP1 PUSH1 0x3 SHL SHR NOT AND OR SWAP1 JUMP JUMPDEST SWAP1 SSTORE JUMPDEST PUSH1 0x3 DUP4 ADD SWAP2 PUSH1 0x1 PUSH1 0x1 PUSH1 0x40 SHL SUB DUP3 GT PUSH2 0x462 JUMPI PUSH2 0xA14 DUP4 SLOAD PUSH2 0x1765 JUMP JUMPDEST PUSH1 0x1F DUP2 GT PUSH2 0xCE8 JUMPI JUMPDEST POP PUSH1 0x0 SWAP1 PUSH1 0x1F DUP4 GT PUSH1 0x1 EQ PUSH2 0xC80 JUMPI SWAP2 DUP1 PUSH2 0xA53 SWAP3 PUSH1 0x4 SWAP7 SWAP6 SWAP5 PUSH1 0x0 SWAP3 PUSH2 0xC75 JUMPI POP POP DUP2 PUSH1 0x1 SHL SWAP2 PUSH1 0x0 NOT SWAP1 PUSH1 0x3 SHL SHR NOT AND OR SWAP1 JUMP JUMPDEST SWAP1 SSTORE JUMPDEST ADD SWAP5 PUSH1 0x1 PUSH1 0x40 SHL DUP2 GT PUSH2 0x462 JUMPI DUP6 SLOAD DUP2 DUP8 SSTORE DUP1 DUP3 LT PUSH2 0xBF7 JUMPI JUMPDEST POP SWAP1 DUP1 SWAP6 PUSH1 0x0 MSTORE PUSH1 0x20 PUSH1 0x0 KECCAK256 SWAP6 PUSH1 0x0 SWAP2 PUSH1 0x1E NOT DUP2 CALLDATASIZE SUB ADD SWAP2 JUMPDEST DUP5 DUP5 LT PUSH2 0xAC8 JUMPI DUP8 PUSH32 0xF0677EC077E6EEC8E31D4E8BE0CB20B797F3A9DC243E2DDC641532C0FF412036 DUP9 DUP9 PUSH2 0xAC3 PUSH1 0x40 MLOAD SWAP3 DUP4 SWAP3 DUP4 PUSH2 0x185A JUMP JUMPDEST SUB SWAP1 LOG2 STOP JUMPDEST DUP1 CALLDATALOAD DUP4 DUP2 SLT ISZERO PUSH2 0x1AC JUMPI DUP3 ADD DUP1 CALLDATALOAD SWAP1 PUSH1 0x1 PUSH1 0x1 PUSH1 0x40 SHL SUB DUP3 GT PUSH2 0x1AC JUMPI DUP2 CALLDATASIZE SUB PUSH1 0x20 DUP3 ADD SGT PUSH2 0x1AC JUMPI PUSH1 0x0 SWAP1 PUSH2 0xAFE DUP13 SLOAD PUSH2 0x1765 JUMP JUMPDEST PUSH1 0x1F DUP2 GT PUSH2 0xBC7 JUMPI JUMPDEST POP DUP2 PUSH1 0x1F DUP5 GT PUSH1 0x1 EQ PUSH2 0xB59 JUMPI DUP4 PUSH1 0x1 SWAP6 SWAP3 SWAP5 PUSH1 0x20 SWAP5 DUP8 SWAP7 PUSH2 0xB3D SWAP5 SWAP3 PUSH2 0xB4C JUMPI POP POP DUP2 PUSH1 0x1 SHL SWAP2 PUSH1 0x0 NOT SWAP1 PUSH1 0x3 SHL SHR NOT AND OR SWAP1 JUMP JUMPDEST DUP13 SSTORE JUMPDEST ADD SWAP10 ADD SWAP4 ADD SWAP3 SWAP8 PUSH2 0xA89 JUMP JUMPDEST DUP7 SWAP3 POP ADD ADD CALLDATALOAD DUP16 DUP1 PUSH2 0x310 JUMP JUMPDEST SWAP2 PUSH1 0x1F NOT DUP5 AND DUP14 DUP5 MSTORE PUSH1 0x20 DUP5 KECCAK256 SWAP4 JUMPDEST DUP2 DUP2 LT PUSH2 0xBAD JUMPI POP SWAP4 PUSH1 0x20 SWAP4 PUSH1 0x1 SWAP7 SWAP4 DUP8 SWAP7 SWAP4 DUP4 DUP9 SWAP6 LT PUSH2 0xB91 JUMPI JUMPDEST POP POP POP DUP2 SHL ADD DUP13 SSTORE PUSH2 0xB40 JUMP JUMPDEST ADD DUP6 ADD CALLDATALOAD PUSH1 0x0 NOT PUSH1 0x3 DUP5 SWAP1 SHL PUSH1 0xF8 AND SHR NOT AND SWAP1 SSTORE DUP15 DUP1 DUP1 PUSH2 0xB84 JUMP JUMPDEST SWAP2 SWAP4 PUSH1 0x20 PUSH1 0x1 DUP2 SWAP3 DUP3 DUP9 DUP9 ADD ADD CALLDATALOAD DUP2 SSTORE ADD SWAP6 ADD SWAP3 ADD PUSH2 0xB68 JUMP JUMPDEST PUSH2 0xBF1 SWAP1 DUP14 DUP5 MSTORE PUSH1 0x20 DUP5 KECCAK256 PUSH1 0x1F DUP7 ADD PUSH1 0x5 SHR DUP2 ADD SWAP2 PUSH1 0x20 DUP8 LT PUSH2 0x5A8 JUMPI PUSH1 0x1F ADD PUSH1 0x5 SHR ADD SWAP1 PUSH2 0x1843 JUMP JUMPDEST DUP13 PUSH2 0xB07 JUMP JUMPDEST DUP7 PUSH1 0x0 MSTORE DUP2 PUSH1 0x20 PUSH1 0x0 KECCAK256 SWAP2 DUP3 ADD SWAP2 ADD JUMPDEST DUP2 DUP2 LT PUSH2 0xC14 JUMPI POP PUSH2 0xA70 JUMP JUMPDEST DUP1 PUSH2 0xC21 PUSH1 0x1 SWAP3 SLOAD PUSH2 0x1765 JUMP JUMPDEST DUP1 PUSH2 0xC2E JUMPI JUMPDEST POP ADD PUSH2 0xC07 JUMP JUMPDEST PUSH1 0x1F DUP2 GT DUP4 EQ PUSH2 0xC44 JUMPI POP PUSH1 0x0 DUP2 SSTORE JUMPDEST DUP10 PUSH2 0xC27 JUMP JUMPDEST PUSH2 0xC62 SWAP1 DUP3 PUSH1 0x0 MSTORE DUP4 PUSH1 0x1F PUSH1 0x20 PUSH1 0x0 KECCAK256 SWAP3 ADD PUSH1 0x5 SHR DUP3 ADD SWAP2 ADD PUSH2 0x1843 JUMP JUMPDEST DUP1 PUSH1 0x0 MSTORE PUSH1 0x0 PUSH1 0x20 DUP2 KECCAK256 DUP2 DUP4 SSTORE SSTORE PUSH2 0xC3E JUMP JUMPDEST ADD CALLDATALOAD SWAP1 POP DUP12 DUP1 PUSH2 0x310 JUMP JUMPDEST DUP4 DUP3 MSTORE PUSH1 0x20 DUP3 KECCAK256 SWAP2 PUSH1 0x1F NOT DUP5 AND DUP2 JUMPDEST DUP2 DUP2 LT PUSH2 0xCD0 JUMPI POP SWAP2 PUSH1 0x1 SWAP4 SWAP2 DUP6 PUSH1 0x4 SWAP9 SWAP8 SWAP7 SWAP5 LT PUSH2 0xCB6 JUMPI JUMPDEST POP POP POP DUP2 SHL ADD SWAP1 SSTORE PUSH2 0xA56 JUMP JUMPDEST ADD CALLDATALOAD PUSH1 0x0 NOT PUSH1 0x3 DUP5 SWAP1 SHL PUSH1 0xF8 AND SHR NOT AND SWAP1 SSTORE DUP11 DUP1 DUP1 PUSH2 0xCA9 JUMP JUMPDEST SWAP2 SWAP4 PUSH1 0x20 PUSH1 0x1 DUP2 SWAP3 DUP8 DUP8 ADD CALLDATALOAD DUP2 SSTORE ADD SWAP6 ADD SWAP3 ADD PUSH2 0xC8F JUMP JUMPDEST PUSH2 0xD14 SWAP1 DUP5 PUSH1 0x0 MSTORE PUSH1 0x20 PUSH1 0x0 KECCAK256 PUSH1 0x1F DUP6 ADD PUSH1 0x5 SHR DUP2 ADD SWAP2 PUSH1 0x20 DUP7 LT PUSH2 0x5A8 JUMPI PUSH1 0x1F ADD PUSH1 0x5 SHR ADD SWAP1 PUSH2 0x1843 JUMP JUMPDEST DUP10 PUSH2 0xA1D JUMP JUMPDEST DUP4 DUP3 MSTORE PUSH1 0x20 DUP3 KECCAK256 SWAP2 PUSH1 0x1F NOT DUP5 AND DUP2 JUMPDEST DUP2 DUP2 LT PUSH2 0xD66 JUMPI POP SWAP1 DUP5 PUSH1 0x1 SWAP6 SWAP5 SWAP4 SWAP3 LT PUSH2 0xD4C JUMPI JUMPDEST POP POP POP DUP2 SHL ADD SWAP1 SSTORE PUSH2 0x9F7 JUMP JUMPDEST ADD CALLDATALOAD PUSH1 0x0 NOT PUSH1 0x3 DUP5 SWAP1 SHL PUSH1 0xF8 AND SHR NOT AND SWAP1 SSTORE DUP12 DUP1 DUP1 PUSH2 0xD3F JUMP JUMPDEST SWAP2 SWAP4 PUSH1 0x20 PUSH1 0x1 DUP2 SWAP3 DUP8 DUP8 ADD CALLDATALOAD DUP2 SSTORE ADD SWAP6 ADD SWAP3 ADD PUSH2 0xD29 JUMP JUMPDEST PUSH2 0xDAA SWAP1 DUP5 PUSH1 0x0 MSTORE PUSH1 0x20 PUSH1 0x0 KECCAK256 PUSH1 0x1F DUP6 ADD PUSH1 0x5 SHR DUP2 ADD SWAP2 PUSH1 0x20 DUP7 LT PUSH2 0x5A8 JUMPI PUSH1 0x1F ADD PUSH1 0x5 SHR ADD SWAP1 PUSH2 0x1843 JUMP JUMPDEST DUP12 PUSH2 0x9C3 JUMP JUMPDEST SWAP1 POP DUP11 ADD CALLDATALOAD DUP15 PUSH2 0x2B6 JUMP JUMPDEST POP DUP2 DUP2 MSTORE PUSH1 0x20 DUP2 KECCAK256 SWAP1 DUP11 PUSH1 0x1F NOT DUP2 AND DUP3 JUMPDEST DUP13 DUP3 DUP3 LT PUSH2 0xE05 JUMPI POP POP LT PUSH2 0xDEB JUMPI JUMPDEST POP POP PUSH1 0x1 DUP10 DUP2 SHL ADD SWAP1 SSTORE PUSH2 0x99D JUMP JUMPDEST DUP10 ADD CALLDATALOAD PUSH1 0x0 NOT PUSH1 0x3 DUP13 SWAP1 SHL PUSH1 0xF8 AND SHR NOT AND SWAP1 SSTORE DUP12 DUP1 PUSH2 0xDDC JUMP JUMPDEST DUP5 ADD CALLDATALOAD DUP6 SSTORE PUSH1 0x1 SWAP1 SWAP5 ADD SWAP4 PUSH1 0x20 SWAP4 DUP5 ADD SWAP4 DUP15 SWAP4 POP ADD PUSH2 0xDCC JUMP JUMPDEST PUSH2 0xE4B SWAP1 DUP3 PUSH1 0x0 MSTORE PUSH1 0x20 PUSH1 0x0 KECCAK256 PUSH1 0x1F DUP13 ADD PUSH1 0x5 SHR DUP2 ADD SWAP2 PUSH1 0x20 DUP14 LT PUSH2 0x5A8 JUMPI PUSH1 0x1F ADD PUSH1 0x5 SHR ADD SWAP1 PUSH2 0x1843 JUMP JUMPDEST DUP12 PUSH2 0x96B JUMP JUMPDEST PUSH4 0xBA32ABE1 PUSH1 0xE0 SHL PUSH1 0x0 MSTORE PUSH1 0x4 PUSH1 0x0 REVERT JUMPDEST PUSH3 0x82B429 PUSH1 0xE8 SHL PUSH1 0x0 MSTORE PUSH1 0x4 PUSH1 0x0 REVERT JUMPDEST CALLVALUE PUSH2 0x1AC JUMPI PUSH1 0x0 CALLDATASIZE PUSH1 0x3 NOT ADD SLT PUSH2 0x1AC JUMPI PUSH1 0x2 SLOAD PUSH1 0x0 DUP1 JUMPDEST DUP3 DUP2 LT PUSH2 0x1001 JUMPI POP PUSH2 0xE9B SWAP1 PUSH2 0x1701 JUMP JUMPDEST PUSH1 0x0 SWAP2 PUSH1 0x0 JUMPDEST DUP2 DUP2 LT PUSH2 0xEB6 JUMPI PUSH1 0x40 MLOAD DUP1 PUSH2 0x17A DUP6 DUP3 PUSH2 0x155A JUMP JUMPDEST PUSH2 0xEBF DUP2 PUSH2 0x1617 JUMP JUMPDEST SWAP1 SLOAD SWAP1 PUSH1 0x3 SHL SHR PUSH1 0x0 MSTORE PUSH1 0x1 PUSH1 0x20 MSTORE PUSH1 0xFF PUSH1 0x5 PUSH1 0x40 PUSH1 0x0 KECCAK256 ADD SLOAD PUSH1 0xA0 SHR AND PUSH2 0xEEA JUMPI JUMPDEST PUSH1 0x1 ADD PUSH2 0xEA1 JUMP JUMPDEST SWAP3 PUSH2 0xEF4 DUP5 PUSH2 0x1617 JUMP JUMPDEST SWAP1 SLOAD SWAP1 PUSH1 0x3 SHL SHR PUSH1 0x0 MSTORE PUSH1 0x1 PUSH1 0x20 MSTORE PUSH1 0x40 PUSH1 0x0 KECCAK256 PUSH1 0x40 MLOAD SWAP1 PUSH2 0xF15 DUP3 PUSH2 0x166D JUMP JUMPDEST DUP1 SLOAD DUP3 MSTORE PUSH2 0xF25 PUSH1 0x1 DUP3 ADD PUSH2 0x179F JUMP JUMPDEST PUSH1 0x20 DUP4 ADD MSTORE PUSH2 0xF36 PUSH1 0x2 DUP3 ADD PUSH2 0x179F JUMP JUMPDEST PUSH1 0x40 DUP4 ADD MSTORE PUSH2 0xF47 PUSH1 0x3 DUP3 ADD PUSH2 0x179F JUMP JUMPDEST PUSH1 0x60 DUP4 ADD MSTORE PUSH1 0x4 DUP2 ADD DUP1 SLOAD PUSH2 0xF5B DUP2 PUSH2 0x16AA JUMP JUMPDEST SWAP2 PUSH2 0xF69 PUSH1 0x40 MLOAD SWAP4 DUP5 PUSH2 0x1689 JUMP JUMPDEST DUP2 DUP4 MSTORE PUSH1 0x20 DUP4 ADD SWAP1 PUSH1 0x0 MSTORE PUSH1 0x20 PUSH1 0x0 KECCAK256 SWAP1 PUSH1 0x0 SWAP1 JUMPDEST DUP4 DUP3 LT PUSH2 0xFE4 JUMPI POP POP POP POP PUSH1 0x80 DUP4 ADD MSTORE PUSH1 0x5 DUP2 ADD SLOAD PUSH1 0x1 PUSH1 0x1 PUSH1 0xA0 SHL SUB DUP2 AND PUSH1 0xA0 DUP1 DUP6 ADD SWAP2 SWAP1 SWAP2 MSTORE SHR PUSH1 0xFF AND ISZERO ISZERO PUSH1 0xC0 DUP4 ADD MSTORE PUSH1 0x6 ADD SLOAD PUSH1 0xE0 DUP3 ADD MSTORE PUSH1 0x1 SWAP2 PUSH2 0xFDC SWAP2 PUSH2 0xFCB DUP3 DUP8 PUSH2 0x1751 JUMP JUMPDEST MSTORE PUSH2 0xFD6 DUP2 DUP7 PUSH2 0x1751 JUMP JUMPDEST POP PUSH2 0x1648 JUMP JUMPDEST SWAP4 SWAP1 POP PUSH2 0xEE2 JUMP JUMPDEST PUSH1 0x1 PUSH1 0x20 DUP2 SWAP3 PUSH2 0xFF3 DUP7 PUSH2 0x179F JUMP JUMPDEST DUP2 MSTORE ADD SWAP4 ADD SWAP2 ADD SWAP1 SWAP2 PUSH2 0xF7E JUMP JUMPDEST PUSH2 0x100A DUP2 PUSH2 0x1617 JUMP JUMPDEST SWAP1 SLOAD SWAP1 PUSH1 0x3 SHL SHR PUSH1 0x0 MSTORE PUSH1 0x1 PUSH1 0x20 MSTORE PUSH1 0xFF PUSH1 0x5 PUSH1 0x40 PUSH1 0x0 KECCAK256 ADD SLOAD PUSH1 0xA0 SHR AND PUSH2 0x1035 JUMPI JUMPDEST PUSH1 0x1 ADD PUSH2 0xE8A JUMP JUMPDEST SWAP1 PUSH2 0x1041 PUSH1 0x1 SWAP2 PUSH2 0x1648 JUMP JUMPDEST SWAP2 SWAP1 POP PUSH2 0x102D JUMP JUMPDEST CALLVALUE PUSH2 0x1AC JUMPI PUSH1 0x0 CALLDATASIZE PUSH1 0x3 NOT ADD SLT PUSH2 0x1AC JUMPI PUSH1 0x2 SLOAD PUSH2 0x1066 DUP2 PUSH2 0x1701 JUMP JUMPDEST SWAP1 PUSH1 0x0 JUMPDEST DUP2 DUP2 LT PUSH2 0x107F JUMPI PUSH1 0x40 MLOAD DUP1 PUSH2 0x17A DUP6 DUP3 PUSH2 0x155A JUMP JUMPDEST PUSH2 0x1088 DUP2 PUSH2 0x1617 JUMP JUMPDEST SWAP1 SLOAD SWAP1 PUSH1 0x3 SHL SHR PUSH1 0x0 MSTORE PUSH1 0x1 PUSH1 0x20 MSTORE PUSH1 0x40 PUSH1 0x0 KECCAK256 PUSH1 0x40 MLOAD SWAP1 PUSH2 0x10A9 DUP3 PUSH2 0x166D JUMP JUMPDEST DUP1 SLOAD DUP3 MSTORE PUSH2 0x10B9 PUSH1 0x1 DUP3 ADD PUSH2 0x179F JUMP JUMPDEST PUSH1 0x20 DUP4 ADD MSTORE PUSH2 0x10CA PUSH1 0x2 DUP3 ADD PUSH2 0x179F JUMP JUMPDEST PUSH1 0x40 DUP4 ADD MSTORE PUSH2 0x10DB PUSH1 0x3 DUP3 ADD PUSH2 0x179F JUMP JUMPDEST PUSH1 0x60 DUP4 ADD MSTORE PUSH1 0x4 DUP2 ADD DUP1 SLOAD PUSH2 0x10EF DUP2 PUSH2 0x16AA JUMP JUMPDEST SWAP2 PUSH2 0x10FD PUSH1 0x40 MLOAD SWAP4 DUP5 PUSH2 0x1689 JUMP JUMPDEST DUP2 DUP4 MSTORE PUSH1 0x20 DUP4 ADD SWAP1 PUSH1 0x0 MSTORE PUSH1 0x20 PUSH1 0x0 KECCAK256 SWAP1 PUSH1 0x0 SWAP1 JUMPDEST DUP4 DUP3 LT PUSH2 0x116E JUMPI POP POP POP POP PUSH1 0x80 DUP4 ADD MSTORE PUSH1 0x5 DUP2 ADD SLOAD PUSH1 0x1 PUSH1 0x1 PUSH1 0xA0 SHL SUB DUP2 AND PUSH1 0xA0 DUP1 DUP6 ADD SWAP2 SWAP1 SWAP2 MSTORE SHR PUSH1 0xFF AND ISZERO ISZERO PUSH1 0xC0 DUP4 ADD MSTORE PUSH1 0x6 ADD SLOAD PUSH1 0xE0 DUP3 ADD MSTORE PUSH1 0x1 SWAP2 SWAP1 PUSH2 0x115C DUP3 DUP7 PUSH2 0x1751 JUMP JUMPDEST MSTORE PUSH2 0x1167 DUP2 DUP6 PUSH2 0x1751 JUMP JUMPDEST POP ADD PUSH2 0x106A JUMP JUMPDEST PUSH1 0x1 PUSH1 0x20 DUP2 SWAP3 PUSH2 0x117D DUP7 PUSH2 0x179F JUMP JUMPDEST DUP2 MSTORE ADD SWAP4 ADD SWAP2 ADD SWAP1 SWAP2 PUSH2 0x1112 JUMP JUMPDEST CALLVALUE PUSH2 0x1AC JUMPI PUSH1 0x0 CALLDATASIZE PUSH1 0x3 NOT ADD SLT PUSH2 0x1AC JUMPI PUSH1 0x20 PUSH1 0x2 SLOAD PUSH1 0x40 MLOAD SWAP1 DUP2 MSTORE RETURN JUMPDEST CALLVALUE PUSH2 0x1AC JUMPI PUSH1 0x20 CALLDATASIZE PUSH1 0x3 NOT ADD SLT PUSH2 0x1AC JUMPI PUSH1 0x4 CALLDATALOAD PUSH1 0x1 PUSH1 0x1 PUSH1 0xA0 SHL SUB DUP2 AND SWAP1 DUP2 SWAP1 SUB PUSH2 0x1AC JUMPI PUSH1 0x2 SLOAD PUSH1 0x0 DUP1 JUMPDEST DUP3 DUP2 LT PUSH2 0x134A JUMPI POP PUSH2 0x11E7 SWAP1 PUSH2 0x1701 JUMP JUMPDEST SWAP1 PUSH1 0x0 DUP1 JUMPDEST DUP3 DUP2 LT PUSH2 0x1201 JUMPI PUSH1 0x40 MLOAD DUP1 PUSH2 0x17A DUP7 DUP3 PUSH2 0x155A JUMP JUMPDEST PUSH2 0x120A DUP2 PUSH2 0x1617 JUMP JUMPDEST SWAP1 SLOAD SWAP1 PUSH1 0x3 SHL SHR PUSH1 0x0 MSTORE PUSH1 0x1 PUSH1 0x20 MSTORE DUP5 PUSH1 0x1 DUP1 PUSH1 0xA0 SHL SUB PUSH1 0x5 PUSH1 0x40 PUSH1 0x0 KECCAK256 ADD SLOAD AND EQ PUSH2 0x1239 JUMPI JUMPDEST PUSH1 0x1 ADD PUSH2 0x11EC JUMP JUMPDEST SWAP1 PUSH2 0x1243 DUP3 PUSH2 0x1617 JUMP JUMPDEST SWAP1 SLOAD SWAP1 PUSH1 0x3 SHL SHR PUSH1 0x0 MSTORE PUSH1 0x1 PUSH1 0x20 MSTORE PUSH1 0x40 PUSH1 0x0 KECCAK256 PUSH1 0x40 MLOAD SWAP1 PUSH2 0x1264 DUP3 PUSH2 0x166D JUMP JUMPDEST DUP1 SLOAD DUP3 MSTORE PUSH2 0x1274 PUSH1 0x1 DUP3 ADD PUSH2 0x179F JUMP JUMPDEST PUSH1 0x20 DUP4 ADD MSTORE PUSH2 0x1285 PUSH1 0x2 DUP3 ADD PUSH2 0x179F JUMP JUMPDEST PUSH1 0x40 DUP4 ADD MSTORE PUSH2 0x1296 PUSH1 0x3 DUP3 ADD PUSH2 0x179F JUMP JUMPDEST PUSH1 0x60 DUP4 ADD MSTORE PUSH1 0x4 DUP2 ADD DUP1 SLOAD PUSH2 0x12AA DUP2 PUSH2 0x16AA JUMP JUMPDEST SWAP2 PUSH2 0x12B8 PUSH1 0x40 MLOAD SWAP4 DUP5 PUSH2 0x1689 JUMP JUMPDEST DUP2 DUP4 MSTORE PUSH1 0x20 DUP4 ADD SWAP1 PUSH1 0x0 MSTORE PUSH1 0x20 PUSH1 0x0 KECCAK256 SWAP1 PUSH1 0x0 SWAP1 JUMPDEST DUP4 DUP3 LT PUSH2 0x132D JUMPI POP POP POP POP PUSH1 0x80 DUP4 ADD MSTORE PUSH1 0x5 DUP2 ADD SLOAD PUSH1 0x1 PUSH1 0x1 PUSH1 0xA0 SHL SUB DUP2 AND PUSH1 0xA0 DUP1 DUP6 ADD SWAP2 SWAP1 SWAP2 MSTORE SHR PUSH1 0xFF AND ISZERO ISZERO PUSH1 0xC0 DUP4 ADD MSTORE PUSH1 0x6 ADD SLOAD PUSH1 0xE0 DUP3 ADD MSTORE PUSH1 0x1 SWAP2 PUSH2 0x1325 SWAP2 PUSH2 0x131A DUP3 DUP9 PUSH2 0x1751 JUMP JUMPDEST MSTORE PUSH2 0xFD6 DUP2 DUP8 PUSH2 0x1751 JUMP JUMPDEST SWAP2 SWAP1 POP PUSH2 0x1231 JUMP JUMPDEST PUSH1 0x1 PUSH1 0x20 DUP2 SWAP3 PUSH2 0x133C DUP7 PUSH2 0x179F JUMP JUMPDEST DUP2 MSTORE ADD SWAP4 ADD SWAP2 ADD SWAP1 SWAP2 PUSH2 0x12CD JUMP JUMPDEST PUSH2 0x1353 DUP2 PUSH2 0x1617 JUMP JUMPDEST SWAP1 SLOAD SWAP1 PUSH1 0x3 SHL SHR PUSH1 0x0 MSTORE PUSH1 0x1 PUSH1 0x20 MSTORE DUP4 PUSH1 0x1 DUP1 PUSH1 0xA0 SHL SUB PUSH1 0x5 PUSH1 0x40 PUSH1 0x0 KECCAK256 ADD SLOAD AND EQ PUSH2 0x1382 JUMPI JUMPDEST PUSH1 0x1 ADD PUSH2 0x11D6 JUMP JUMPDEST SWAP1 PUSH2 0x138E PUSH1 0x1 SWAP2 PUSH2 0x1648 JUMP JUMPDEST SWAP2 SWAP1 POP PUSH2 0x137A JUMP JUMPDEST CALLVALUE PUSH2 0x1AC JUMPI PUSH1 0x20 CALLDATASIZE PUSH1 0x3 NOT ADD SLT PUSH2 0x1AC JUMPI PUSH1 0x4 CALLDATALOAD PUSH1 0x0 DUP2 DUP2 MSTORE PUSH1 0x1 PUSH1 0x20 MSTORE PUSH1 0x40 SWAP1 KECCAK256 PUSH1 0x5 ADD SLOAD PUSH1 0x1 PUSH1 0x1 PUSH1 0xA0 SHL SUB AND CALLER SUB PUSH2 0xE62 JUMPI DUP1 PUSH1 0x0 MSTORE PUSH1 0x1 PUSH1 0x20 MSTORE PUSH1 0x6 PUSH1 0x40 PUSH1 0x0 KECCAK256 ADD SLOAD ISZERO PUSH2 0x19B JUMPI DUP1 PUSH1 0x0 MSTORE PUSH1 0x1 PUSH1 0x20 MSTORE PUSH1 0xFF PUSH1 0x5 PUSH1 0x40 PUSH1 0x0 KECCAK256 ADD SLOAD PUSH1 0xA0 SHR AND ISZERO PUSH2 0xE51 JUMPI PUSH1 0x0 DUP2 DUP2 MSTORE PUSH1 0x1 PUSH1 0x20 MSTORE PUSH1 0x40 DUP2 KECCAK256 PUSH1 0x5 ADD DUP1 SLOAD PUSH1 0xFF PUSH1 0xA0 SHL NOT AND SWAP1 SSTORE PUSH32 0xC2FB7F8575AC3990E70361684EDFC4D283931EA9A03DFA28766BF376A3934AA2 SWAP1 DUP1 LOG2 STOP JUMPDEST SWAP2 SWAP1 DUP3 MLOAD SWAP3 DUP4 DUP3 MSTORE PUSH1 0x0 JUMPDEST DUP5 DUP2 LT PUSH2 0x146D JUMPI POP POP DUP3 PUSH1 0x0 PUSH1 0x20 DUP1 SWAP5 SWAP6 DUP5 ADD ADD MSTORE PUSH1 0x1F DUP1 NOT SWAP2 ADD AND ADD ADD SWAP1 JUMP JUMPDEST DUP1 PUSH1 0x20 DUP1 SWAP3 DUP5 ADD ADD MLOAD DUP3 DUP3 DUP7 ADD ADD MSTORE ADD PUSH2 0x144C JUMP JUMPDEST SWAP1 DUP2 MLOAD DUP2 MSTORE PUSH2 0x14CC PUSH2 0x14BA PUSH2 0x14A8 PUSH1 0x20 DUP6 ADD MLOAD PUSH2 0x100 PUSH1 0x20 DUP7 ADD MSTORE PUSH2 0x100 DUP6 ADD SWAP1 PUSH2 0x1441 JUMP JUMPDEST PUSH1 0x40 DUP6 ADD MLOAD DUP5 DUP3 SUB PUSH1 0x40 DUP7 ADD MSTORE PUSH2 0x1441 JUMP JUMPDEST PUSH1 0x60 DUP5 ADD MLOAD DUP4 DUP3 SUB PUSH1 0x60 DUP6 ADD MSTORE PUSH2 0x1441 JUMP JUMPDEST SWAP2 PUSH1 0x80 DUP2 ADD MLOAD SWAP3 DUP3 DUP2 SUB PUSH1 0x80 DUP5 ADD MSTORE DUP4 MLOAD DUP1 DUP3 MSTORE PUSH1 0x20 DUP3 ADD SWAP2 PUSH1 0x20 DUP1 DUP4 PUSH1 0x5 SHL DUP4 ADD ADD SWAP7 ADD SWAP3 PUSH1 0x0 SWAP2 JUMPDEST DUP4 DUP4 LT PUSH2 0x152D JUMPI POP POP POP PUSH1 0xA0 DUP1 DUP5 ADD MLOAD PUSH1 0x1 PUSH1 0x1 PUSH1 0xA0 SHL SUB AND SWAP1 DUP6 ADD MSTORE POP POP PUSH1 0xC0 DUP1 DUP3 ADD MLOAD ISZERO ISZERO SWAP1 DUP4 ADD MSTORE PUSH1 0xE0 SWAP1 DUP2 ADD MLOAD SWAP2 ADD MSTORE SWAP1 JUMP JUMPDEST SWAP1 SWAP2 SWAP3 SWAP4 SWAP7 PUSH1 0x20 DUP1 PUSH2 0x154B PUSH1 0x1 SWAP4 PUSH1 0x1F NOT DUP7 DUP3 SUB ADD DUP8 MSTORE DUP12 MLOAD PUSH2 0x1441 JUMP JUMPDEST SWAP10 ADD SWAP4 ADD SWAP4 ADD SWAP2 SWAP4 SWAP3 SWAP1 PUSH2 0x14F6 JUMP JUMPDEST PUSH1 0x20 DUP2 ADD PUSH1 0x20 DUP3 MSTORE DUP3 MLOAD DUP1 SWAP2 MSTORE PUSH1 0x40 DUP3 ADD SWAP2 PUSH1 0x20 PUSH1 0x40 DUP4 PUSH1 0x5 SHL DUP4 ADD ADD SWAP5 ADD SWAP3 PUSH1 0x0 SWAP2 JUMPDEST DUP4 DUP4 LT PUSH2 0x158D JUMPI POP POP POP POP POP SWAP1 JUMP JUMPDEST SWAP1 SWAP2 SWAP3 SWAP4 SWAP5 PUSH1 0x20 DUP1 PUSH2 0x15AB PUSH1 0x1 SWAP4 PUSH1 0x3F NOT DUP7 DUP3 SUB ADD DUP8 MSTORE DUP10 MLOAD PUSH2 0x1482 JUMP JUMPDEST SWAP8 ADD SWAP4 ADD SWAP4 ADD SWAP2 SWAP4 SWAP3 SWAP1 PUSH2 0x157E JUMP JUMPDEST SWAP2 DUP2 PUSH1 0x1F DUP5 ADD SLT ISZERO PUSH2 0x1AC JUMPI DUP3 CALLDATALOAD SWAP2 PUSH1 0x1 PUSH1 0x1 PUSH1 0x40 SHL SUB DUP4 GT PUSH2 0x1AC JUMPI PUSH1 0x20 DUP4 DUP2 DUP7 ADD SWAP6 ADD ADD GT PUSH2 0x1AC JUMPI JUMP JUMPDEST SWAP2 DUP2 PUSH1 0x1F DUP5 ADD SLT ISZERO PUSH2 0x1AC JUMPI DUP3 CALLDATALOAD SWAP2 PUSH1 0x1 PUSH1 0x1 PUSH1 0x40 SHL SUB DUP4 GT PUSH2 0x1AC JUMPI PUSH1 0x20 DUP1 DUP6 ADD SWAP5 DUP5 PUSH1 0x5 SHL ADD ADD GT PUSH2 0x1AC JUMPI JUMP JUMPDEST PUSH1 0x2 SLOAD DUP2 LT ISZERO PUSH2 0x1632 JUMPI PUSH1 0x2 PUSH1 0x0 MSTORE PUSH1 0x20 PUSH1 0x0 KECCAK256 ADD SWAP1 PUSH1 0x0 SWAP1 JUMP JUMPDEST PUSH4 0x4E487B71 PUSH1 0xE0 SHL PUSH1 0x0 MSTORE PUSH1 0x32 PUSH1 0x4 MSTORE PUSH1 0x24 PUSH1 0x0 REVERT JUMPDEST PUSH1 0x0 NOT DUP2 EQ PUSH2 0x1657 JUMPI PUSH1 0x1 ADD SWAP1 JUMP JUMPDEST PUSH4 0x4E487B71 PUSH1 0xE0 SHL PUSH1 0x0 MSTORE PUSH1 0x11 PUSH1 0x4 MSTORE PUSH1 0x24 PUSH1 0x0 REVERT JUMPDEST PUSH2 0x100 DUP2 ADD SWAP1 DUP2 LT PUSH1 0x1 PUSH1 0x1 PUSH1 0x40 SHL SUB DUP3 GT OR PUSH2 0x462 JUMPI PUSH1 0x40 MSTORE JUMP JUMPDEST SWAP1 PUSH1 0x1F DUP1 NOT SWAP2 ADD AND DUP2 ADD SWAP1 DUP2 LT PUSH1 0x1 PUSH1 0x1 PUSH1 0x40 SHL SUB DUP3 GT OR PUSH2 0x462 JUMPI PUSH1 0x40 MSTORE JUMP JUMPDEST PUSH1 0x1 PUSH1 0x1 PUSH1 0x40 SHL SUB DUP2 GT PUSH2 0x462 JUMPI PUSH1 0x5 SHL PUSH1 0x20 ADD SWAP1 JUMP JUMPDEST PUSH1 0x40 MLOAD SWAP1 PUSH2 0x16CE DUP3 PUSH2 0x166D JUMP JUMPDEST PUSH1 0x0 PUSH1 0xE0 DUP4 DUP3 DUP2 MSTORE PUSH1 0x60 PUSH1 0x20 DUP3 ADD MSTORE PUSH1 0x60 PUSH1 0x40 DUP3 ADD MSTORE PUSH1 0x60 DUP1 DUP3 ADD MSTORE PUSH1 0x60 PUSH1 0x80 DUP3 ADD MSTORE DUP3 PUSH1 0xA0 DUP3 ADD MSTORE DUP3 PUSH1 0xC0 DUP3 ADD MSTORE ADD MSTORE JUMP JUMPDEST SWAP1 PUSH2 0x170B DUP3 PUSH2 0x16AA JUMP JUMPDEST PUSH2 0x1718 PUSH1 0x40 MLOAD SWAP2 DUP3 PUSH2 0x1689 JUMP JUMPDEST DUP3 DUP2 MSTORE DUP1 SWAP3 PUSH2 0x1729 PUSH1 0x1F NOT SWAP2 PUSH2 0x16AA JUMP JUMPDEST ADD SWAP1 PUSH1 0x0 JUMPDEST DUP3 DUP2 LT PUSH2 0x173A JUMPI POP POP POP JUMP JUMPDEST PUSH1 0x20 SWAP1 PUSH2 0x1745 PUSH2 0x16C1 JUMP JUMPDEST DUP3 DUP3 DUP6 ADD ADD MSTORE ADD PUSH2 0x172E JUMP JUMPDEST DUP1 MLOAD DUP3 LT ISZERO PUSH2 0x1632 JUMPI PUSH1 0x20 SWAP2 PUSH1 0x5 SHL ADD ADD SWAP1 JUMP JUMPDEST SWAP1 PUSH1 0x1 DUP3 DUP2 SHR SWAP3 AND DUP1 ISZERO PUSH2 0x1795 JUMPI JUMPDEST PUSH1 0x20 DUP4 LT EQ PUSH2 0x177F JUMPI JUMP JUMPDEST PUSH4 0x4E487B71 PUSH1 0xE0 SHL PUSH1 0x0 MSTORE PUSH1 0x22 PUSH1 0x4 MSTORE PUSH1 0x24 PUSH1 0x0 REVERT JUMPDEST SWAP2 PUSH1 0x7F AND SWAP2 PUSH2 0x1774 JUMP JUMPDEST SWAP1 PUSH1 0x40 MLOAD SWAP2 DUP3 PUSH1 0x0 DUP3 SLOAD SWAP3 PUSH2 0x17B3 DUP5 PUSH2 0x1765 JUMP JUMPDEST DUP1 DUP5 MSTORE SWAP4 PUSH1 0x1 DUP2 AND SWAP1 DUP2 ISZERO PUSH2 0x1821 JUMPI POP PUSH1 0x1 EQ PUSH2 0x17DA JUMPI JUMPDEST POP PUSH2 0x17D8 SWAP3 POP SUB DUP4 PUSH2 0x1689 JUMP JUMPDEST JUMP JUMPDEST SWAP1 POP PUSH1 0x0 SWAP3 SWAP2 SWAP3 MSTORE PUSH1 0x20 PUSH1 0x0 KECCAK256 SWAP1 PUSH1 0x0 SWAP2 JUMPDEST DUP2 DUP4 LT PUSH2 0x1805 JUMPI POP POP SWAP1 PUSH1 0x20 PUSH2 0x17D8 SWAP3 DUP3 ADD ADD CODESIZE PUSH2 0x17CB JUMP JUMPDEST PUSH1 0x20 SWAP2 SWAP4 POP DUP1 PUSH1 0x1 SWAP2 SLOAD DUP4 DUP6 DUP10 ADD ADD MSTORE ADD SWAP2 ADD SWAP1 SWAP2 DUP5 SWAP3 PUSH2 0x17EC JUMP JUMPDEST SWAP1 POP PUSH1 0x20 SWAP3 POP PUSH2 0x17D8 SWAP5 SWAP2 POP PUSH1 0xFF NOT AND DUP3 DUP5 ADD MSTORE ISZERO ISZERO PUSH1 0x5 SHL DUP3 ADD ADD CODESIZE PUSH2 0x17CB JUMP JUMPDEST DUP2 DUP2 LT PUSH2 0x184E JUMPI POP POP JUMP JUMPDEST PUSH1 0x0 DUP2 SSTORE PUSH1 0x1 ADD PUSH2 0x1843 JUMP JUMPDEST SWAP1 SWAP2 DUP1 PUSH1 0x40 SWAP4 PUSH1 0x20 DUP5 MSTORE DUP2 PUSH1 0x20 DUP6 ADD MSTORE DUP5 DUP5 ADD CALLDATACOPY PUSH1 0x0 DUP3 DUP3 ADD DUP5 ADD MSTORE PUSH1 0x1F ADD PUSH1 0x1F NOT AND ADD ADD SWAP1 JUMP INVALID LOG2 PUSH5 0x6970667358 0x22 SLT KECCAK256 SWAP16 DUP16 0xD3 DUP12 CREATE2 0x2F DUP15 0xEE DIV PUSH28 0x4776110C024567E3D392BE2CA896B7CD9E0BA772AF6064736F6C6343 STOP ADDMOD SHR STOP CALLER "},"methodIdentifiers":{"deactivateAgent(uint256)":"11ba6b4a","getActiveAgents()":"86b909fd","getAgentById(uint256)":"f44c253a","getAgentsByOwner(address)":"1ab6f888","getAllAgents()":"860e4ac6","getTotalAgents()":"3731a16f","registerAgent(string,string,string,string[])":"bfe950cd","updateAgent(uint256,string,string,string,string[])":"89417696"}}}}}