{
  "_format": "hh-sol-artifact-1",
  "contractName": "AgentRegistry",
  "sourceName": "contracts/AgentRegistry.sol",
  "abi": [
    {
      "inputs": [],
      "name": "AgentInactive",
      "type": "error"
    },
    {
      "inputs": [],
      "name": "AgentNotFound",
      "type": "error"
    },
    {
      "inputs": [],
      "name": "EmptyEndpoint",
      "type": "error"
    },
    {
      "inputs": [],
      "name": "EmptyName",
      "type": "error"
    },
    {
      "inputs": [],
      "name": "Unauthorized",
      "type": "error"
    },
    {
      "anonymous": false,
      "inputs": [
        {
          "indexed": true,
          "internalType": "uint256",
          "name": "id",
          "type": "uint256"
        }
      ],
      "name": "AgentDeactivated",
      "type": "event"
    },
    {
      "anonymous": false,
      "inputs": [
        {
          "indexed": true,
          "internalType": "uint256",
          "name": "id",
          "type": "uint256"
        },
        {
          "indexed": false,
          "internalType": "string",
          "name": "name",
          "type": "string"
        },
        {
          "indexed": true,
          "internalType": "address",
          "name": "owner",
          "type": "address"
        }
      ],
      "name": "AgentRegistered",
      "type": "event"
    },
    {
      "anonymous": false,
      "inputs": [
        {
          "indexed": true,
          "internalType": "uint256",
          "name": "id",
          "type": "uint256"
        },
        {
          "indexed": false,
          "internalType": "string",
          "name": "name",
          "type": "string"
        }
      ],
      "name": "AgentUpdated",
      "type": "event"
    },
    {
      "inputs": [
        {
          "internalType": "uint256",
          "name": "agentId",
          "type": "uint256"
        }
      ],
      "name": "deactivateAgent",
      "outputs": [],
      "stateMutability": "nonpayable",
      "type": "function"
    },
    {
      "inputs": [],
      "name": "getActiveAgents",
      "outputs": [
        {
          "components": [
            {
              "internalType": "uint256",
              "name": "id",
              "type": "uint256"
            },
            {
              "internalType": "string",
              "name": "name",
              "type": "string"
            },
            {
              "internalType": "string",
              "name": "description",
              "type": "string"
            },
            {
              "internalType": "string",
              "name": "endpoint",
              "type": "string"
            },
            {
              "internalType": "string[]",
              "name": "capabilities",
              "type": "string[]"
            },
            {
              "internalType": "address",
              "name": "owner",
              "type": "address"
            },
            {
              "internalType": "bool",
              "name": "isActive",
              "type": "bool"
            },
            {
              "internalType": "uint256",
              "name": "createdAt",
              "type": "uint256"
            }
          ],
          "internalType": "struct AgentRegistry.Agent[]",
          "name": "",
          "type": "tuple[]"
        }
      ],
      "stateMutability": "view",
      "type": "function"
    },
    {
      "inputs": [
        {
          "internalType": "uint256",
          "name": "agentId",
          "type": "uint256"
        }
      ],
      "name": "getAgentById",
      "outputs": [
        {
          "components": [
            {
              "internalType": "uint256",
              "name": "id",
              "type": "uint256"
            },
            {
              "internalType": "string",
              "name": "name",
              "type": "string"
            },
            {
              "internalType": "string",
              "name": "description",
              "type": "string"
            },
            {
              "internalType": "string",
              "name": "endpoint",
              "type": "string"
            },
            {
              "internalType": "string[]",
              "name": "capabilities",
              "type": "string[]"
            },
            {
              "internalType": "address",
              "name": "owner",
              "type": "address"
            },
            {
              "internalType": "bool",
              "name": "isActive",
              "type": "bool"
            },
            {
              "internalType": "uint256",
              "name": "createdAt",
              "type": "uint256"
            }
          ],
          "internalType": "struct AgentRegistry.Agent",
          "name": "",
          "type": "tuple"
        }
      ],
      "stateMutability": "view",
      "type": "function"
    },
    {
      "inputs": [
        {
          "internalType": "address",
          "name": "owner",
          "type": "address"
        }
      ],
      "name": "getAgentsByOwner",
      "outputs": [
        {
          "components": [
            {
              "internalType": "uint256",
              "name": "id",
              "type": "uint256"
            },
            {
              "internalType": "string",
              "name": "name",
              "type": "string"
            },
            {
              "internalType": "string",
              "name": "description",
              "type": "string"
            },
            {
              "internalType": "string",
              "name": "endpoint",
              "type": "string"
            },
            {
              "internalType": "string[]",
              "name": "capabilities",
              "type": "string[]"
            },
            {
              "internalType": "address",
              "name": "owner",
              "type": "address"
            },
            {
              "internalType": "bool",
              "name": "isActive",
              "type": "bool"
            },
            {
              "internalType": "uint256",
              "name": "createdAt",
              "type": "uint256"
            }
          ],
          "internalType": "struct AgentRegistry.Agent[]",
          "name": "",
          "type": "tuple[]"
        }
      ],
      "stateMutability": "view",
      "type": "function"
    },
    {
      "inputs": [],
      "name": "getAllAgents",
      "outputs": [
        {
          "components": [
            {
              "internalType": "uint256",
              "name": "id",
              "type": "uint256"
            },
            {
              "internalType": "string",
              "name": "name",
              "type": "string"
            },
            {
              "internalType": "string",
              "name": "description",
              "type": "string"
            },
            {
              "internalType": "string",
              "name": "endpoint",
              "type": "string"
            },
            {
              "internalType": "string[]",
              "name": "capabilities",
              "type": "string[]"
            },
            {
              "internalType": "address",
              "name": "owner",
              "type": "address"
            },
            {
              "internalType": "bool",
              "name": "isActive",
              "type": "bool"
            },
            {
              "internalType": "uint256",
              "name": "createdAt",
              "type": "uint256"
            }
          ],
          "internalType": "struct AgentRegistry.Agent[]",
          "name": "",
          "type": "tuple[]"
        }
      ],
      "stateMutability": "view",
      "type": "function"
    },
    {
      "inputs": [],
      "name": "getTotalAgents",
      "outputs": [
        {
          "internalType": "uint256",
          "name": "",
          "type": "uint256"
        }
      ],
      "stateMutability": "view",
      "type": "function"
    },
    {
      "inputs": [
        {
          "internalType": "string",
          "name": "name",
          "type": "string"
        },
        {
          "internalType": "string",
          "name": "description",
          "type": "string"
        },
        {
          "internalType": "string",
          "name": "endpoint",
          "type": "string"
        },
        {
          "internalType": "string[]",
          "name": "capabilities",
          "type": "string[]"
        }
      ],
      "name": "registerAgent",
      "outputs": [
        {
          "internalType": "uint256",
          "name": "",
          "type": "uint256"
        }
      ],
      "stateMutability": "nonpayable",
      "type": "function"
    },
    {
      "inputs": [
        {
          "internalType": "uint256",
          "name": "agentId",
          "type": "uint256"
        },
        {
          "internalType": "string",
          "name": "name",
          "type": "string"
        },
        {
          "internalType": "string",
          "name": "description",
          "type": "string"
        },
        {
          "internalType": "string",
          "name": "endpoint",
          "type": "string"
        },
        {
          "internalType": "string[]",
          "name": "capabilities",
          "type": "string[]"
        }
      ],
      "name": "updateAgent",
      "outputs": [],
      "stateMutability": "nonpayable",
      "type": "function"
    }
  ],
  "bytecode": "0x608080604052346015576118b8908161001b8239f35b600080fdfe6080604052600436101561001257600080fd5b60003560e01c806311ba6b4a146113965780631ab6f888146111a95780633731a16f1461118b578063860e4ac61461104957806386b909fd14610e72578063894176961461083a578063bfe950cd146101b15763f44c253a1461007457600080fd5b346101ac5760203660031901126101ac576004356100906116c1565b508060005260016020526006604060002001541561019b57600052600160205260406000206040516100c18161166d565b815481526100d16001830161179f565b60208201526100e26002830161179f565b60408201526100f36003830161179f565b6060820152600482018054610107816116aa565b916101156040519384611689565b818352602083019060005260206000206000915b83831061017e576080860185905260058701546001600160a01b03811660a0808901919091521c60ff16151560c0870152600687015460e08701526040516020808252819061017a90820189611482565b0390f35b60016020819261018d8561179f565b815201920192019190610129565b63e93ba22360e01b60005260046000fd5b600080fd5b346101ac5760803660031901126101ac576004356001600160401b0381116101ac576101e19036906004016115ba565b906024356001600160401b0381116101ac576102019036906004016115ba565b6044929192356001600160401b0381116101ac576102239036906004016115ba565b6064356001600160401b0381116101ac576102429036906004016115e7565b9290918715610829578015610818576000549661025e88611648565b600055876000526001602052604060002095888755600187016001600160401b038b116104625761028f8154611765565b8b601f82116107e5575b505060008b601f811160011461077d57806102ca92600091610772575b508160011b916000199060031b1c19161790565b90555b60028701916001600160401b038211610462576102ea8354611765565b601f8111610740575b50600090601f83116001146106dc576103259291600091836106d1575b50508160011b916000199060031b1c19161790565b90555b60038501916001600160401b038211610462576103458354611765565b601f811161069f575b50600090601f831160011461063b5761037f9291600091836106305750508160011b916000199060031b1c19161790565b90555b6004830191600160401b81116104625782548184558082106105b2575b50908092600052602060002092600091601e1981360301915b84841061047857505050506005830180546001600160a81b0319163360ff60a01b191617600160a01b179055505042600690910155600254600160401b811015610462577faef1fcdf962a03943b677ae3b92ef1b34c972aeef794ed6e9ba5f599b461883b610457602095610434846001889601600255611617565b81549060031b9086821b91600019901b191617905560405191829133968361185a565b0390a3604051908152f35b634e487b7160e01b600052604160045260246000fd5b8035838112156101ac5782018035906001600160401b0382116101ac5781360360208201136101ac576000906104ae8954611765565b601f8111610577575b5081601f84116001146105095783600195929460209487966104ed94926104fc5750508160011b916000199060031b1c19161790565b89555b019601930192946103b8565b8692500101353880610310565b91601f1984168a845260208420935b81811061055d5750936020936001969387969383889510610541575b505050811b0189556104f0565b01850135600019600384901b60f8161c191690558f8080610534565b919360206001819282888801013581550195019201610518565b6105a2908a845260208420601f860160051c810191602087106105a8575b601f0160051c0190611843565b8d6104b7565b9091508190610595565b8360005281602060002091820191015b8181106105cf575061039f565b806105dc60019254611765565b806105e9575b50016105c2565b601f811183146105ff5750600081555b8a6105e2565b61061d908260005283601f6020600020920160051c82019101611843565b80600052600060208120818355556105f9565b013590508a80610310565b8382526020822091601f198416815b818110610687575090846001959493921061066d575b505050811b019055610382565b0135600019600384901b60f8161c19169055898080610660565b9193602060018192878701358155019501920161064a565b6106cb90846000526020600020601f850160051c810191602086106105a857601f0160051c0190611843565b8961034e565b013590508c80610310565b8382526020822091601f198416815b818110610728575090846001959493921061070e575b505050811b019055610328565b0135600019600384901b60f8161c191690558b8080610701565b919360206001819287870135815501950192016106eb565b61076c90846000526020600020601f850160051c810191602086106105a857601f0160051c0190611843565b8b6102f3565b90508b01358e6102b6565b5081815260208120908c601f198116825b8d8282106107c7575050106107ad575b505060018b811b0190556102cd565b8a013560001960038e901b60f8161c191690558b8061079e565b60209293508495839295600192013581550194019201908e9161078e565b61081191836000526020600020906020601f840160051c830193106105a857601f0160051c0190611843565b8b8b610299565b63221418ad60e21b60005260046000fd5b632ef1310560e01b60005260046000fd5b346101ac5760a03660031901126101ac576004356024356001600160401b0381116101ac5761086d9036906004016115ba565b6044929192356001600160401b0381116101ac5761088f9036906004016115ba565b93906064356001600160401b0381116101ac576108b09036906004016115ba565b95906084356001600160401b0381116101ac576108d19036906004016115e7565b60008881526001602052604090206005015490989194906001600160a01b03163303610e62578760005260016020526006604060002001541561019b5786156108295781156108185787600052600160205260ff60056040600020015460a01c1615610e5157876000526001602052604060002093600185016001600160401b038911610462576109628154611765565b601f8111610e1f575b50600089601f8111600114610dbb578061099a92600091610db057508160011b916000199060031b1c19161790565b90555b60028501916001600160401b038211610462576109ba8354611765565b601f8111610d7e575b50600090601f8311600114610d1a576109f49291600091836106d15750508160011b916000199060031b1c19161790565b90555b60038301916001600160401b03821161046257610a148354611765565b601f8111610ce8575b50600090601f8311600114610c80579180610a53926004969594600092610c755750508160011b916000199060031b1c19161790565b90555b0194600160401b8111610462578554818755808210610bf7575b50908095600052602060002095600091601e1981360301915b848410610ac857877ff0677ec077e6eec8e31d4e8be0cb20b797f3a9dc243e2ddc641532c0ff4120368888610ac36040519283928361185a565b0390a2005b8035838112156101ac5782018035906001600160401b0382116101ac5781360360208201136101ac57600090610afe8c54611765565b601f8111610bc7575b5081601f8411600114610b59578360019592946020948796610b3d9492610b4c5750508160011b916000199060031b1c19161790565b8c555b01990193019297610a89565b8692500101358f80610310565b91601f1984168d845260208420935b818110610bad5750936020936001969387969383889510610b91575b505050811b018c55610b40565b01850135600019600384901b60f8161c191690558e8080610b84565b919360206001819282888801013581550195019201610b68565b610bf1908d845260208420601f860160051c810191602087106105a857601f0160051c0190611843565b8c610b07565b8660005281602060002091820191015b818110610c145750610a70565b80610c2160019254611765565b80610c2e575b5001610c07565b601f81118314610c445750600081555b89610c27565b610c62908260005283601f6020600020920160051c82019101611843565b8060005260006020812081835555610c3e565b013590508b80610310565b8382526020822091601f198416815b818110610cd0575091600193918560049897969410610cb6575b505050811b019055610a56565b0135600019600384901b60f8161c191690558a8080610ca9565b91936020600181928787013581550195019201610c8f565b610d1490846000526020600020601f850160051c810191602086106105a857601f0160051c0190611843565b89610a1d565b8382526020822091601f198416815b818110610d665750908460019594939210610d4c575b505050811b0190556109f7565b0135600019600384901b60f8161c191690558b8080610d3f565b91936020600181928787013581550195019201610d29565b610daa90846000526020600020601f850160051c810191602086106105a857601f0160051c0190611843565b8b6109c3565b90508a01358e6102b6565b5081815260208120908a601f198116825b8c828210610e0557505010610deb575b5050600189811b01905561099d565b89013560001960038c901b60f8161c191690558b80610ddc565b84013585556001909401936020938401938e935001610dcc565b610e4b90826000526020600020601f8c0160051c81019160208d106105a857601f0160051c0190611843565b8b61096b565b63ba32abe160e01b60005260046000fd5b6282b42960e81b60005260046000fd5b346101ac5760003660031901126101ac576002546000805b8281106110015750610e9b90611701565b60009160005b818110610eb6576040518061017a858261155a565b610ebf81611617565b90549060031b1c600052600160205260ff60056040600020015460a01c16610eea575b600101610ea1565b92610ef484611617565b90549060031b1c6000526001602052604060002060405190610f158261166d565b80548252610f256001820161179f565b6020830152610f366002820161179f565b6040830152610f476003820161179f565b6060830152600481018054610f5b816116aa565b91610f696040519384611689565b81835260208301906000526020600020906000905b838210610fe45750505050608083015260058101546001600160a01b03811660a0808501919091521c60ff16151560c08301526006015460e0820152600191610fdc91610fcb8287611751565b52610fd68186611751565b50611648565b939050610ee2565b600160208192610ff38661179f565b815201930191019091610f7e565b61100a81611617565b90549060031b1c600052600160205260ff60056040600020015460a01c16611035575b600101610e8a565b90611041600191611648565b91905061102d565b346101ac5760003660031901126101ac5760025461106681611701565b9060005b81811061107f576040518061017a858261155a565b61108881611617565b90549060031b1c60005260016020526040600020604051906110a98261166d565b805482526110b96001820161179f565b60208301526110ca6002820161179f565b60408301526110db6003820161179f565b60608301526004810180546110ef816116aa565b916110fd6040519384611689565b81835260208301906000526020600020906000905b83821061116e5750505050608083015260058101546001600160a01b03811660a0808501919091521c60ff16151560c08301526006015460e08201526001919061115c8286611751565b526111678185611751565b500161106a565b60016020819261117d8661179f565b815201930191019091611112565b346101ac5760003660031901126101ac576020600254604051908152f35b346101ac5760203660031901126101ac576004356001600160a01b038116908190036101ac576002546000805b82811061134a57506111e790611701565b906000805b828110611201576040518061017a868261155a565b61120a81611617565b90549060031b1c60005260016020528460018060a01b036005604060002001541614611239575b6001016111ec565b9061124382611617565b90549060031b1c60005260016020526040600020604051906112648261166d565b805482526112746001820161179f565b60208301526112856002820161179f565b60408301526112966003820161179f565b60608301526004810180546112aa816116aa565b916112b86040519384611689565b81835260208301906000526020600020906000905b83821061132d5750505050608083015260058101546001600160a01b03811660a0808501919091521c60ff16151560c08301526006015460e08201526001916113259161131a8288611751565b52610fd68187611751565b919050611231565b60016020819261133c8661179f565b8152019301910190916112cd565b61135381611617565b90549060031b1c60005260016020528360018060a01b036005604060002001541614611382575b6001016111d6565b9061138e600191611648565b91905061137a565b346101ac5760203660031901126101ac576004356000818152600160205260409020600501546001600160a01b03163303610e62578060005260016020526006604060002001541561019b5780600052600160205260ff60056040600020015460a01c1615610e51576000818152600160205260408120600501805460ff60a01b191690557fc2fb7f8575ac3990e70361684edfc4d283931ea9a03dfa28766bf376a3934aa29080a2005b919082519283825260005b84811061146d575050826000602080949584010152601f8019910116010190565b8060208092840101518282860101520161144c565b90815181526114cc6114ba6114a860208501516101006020860152610100850190611441565b60408501518482036040860152611441565b60608401518382036060850152611441565b916080810151928281036080840152835180825260208201916020808360051b8301019601926000915b83831061152d5750505060a0808401516001600160a01b031690850152505060c08082015115159083015260e09081015191015290565b909192939660208061154b600193601f198682030187528b51611441565b990193019301919392906114f6565b602081016020825282518091526040820191602060408360051b8301019401926000915b83831061158d57505050505090565b90919293946020806115ab600193603f198682030187528951611482565b9701930193019193929061157e565b9181601f840112156101ac578235916001600160401b0383116101ac57602083818601950101116101ac57565b9181601f840112156101ac578235916001600160401b0383116101ac576020808501948460051b0101116101ac57565b60025481101561163257600260005260206000200190600090565b634e487b7160e01b600052603260045260246000fd5b60001981146116575760010190565b634e487b7160e01b600052601160045260246000fd5b61010081019081106001600160401b0382111761046257604052565b90601f801991011681019081106001600160401b0382111761046257604052565b6001600160401b0381116104625760051b60200190565b604051906116ce8261166d565b600060e0838281526060602082015260606040820152606080820152606060808201528260a08201528260c08201520152565b9061170b826116aa565b6117186040519182611689565b8281528092611729601f19916116aa565b019060005b82811061173a57505050565b6020906117456116c1565b8282850101520161172e565b80518210156116325760209160051b010190565b90600182811c92168015611795575b602083101461177f57565b634e487b7160e01b600052602260045260246000fd5b91607f1691611774565b90604051918260008254926117b384611765565b808452936001811690811561182157506001146117da575b506117d892500383611689565b565b90506000929192526020600020906000915b8183106118055750509060206117d892820101386117cb565b60209193508060019154838589010152019101909184926117ec565b9050602092506117d894915060ff191682840152151560051b820101386117cb565b81811061184e575050565b60008155600101611843565b90918060409360208452816020850152848401376000828201840152601f01601f191601019056fea26469706673582212209f8fd38bf52f8eee047b4776110c024567e3d392be2ca896b7cd9e0ba772af6064736f6c634300081c0033",
  "linkReferences": {},
  "deployedLinkReferences": {}
}